:020000040800F2
:10000000382F002045010008D10E00081105000816
:1000100041060008DD010008AF14000800000000E0
:100020000000000000000000000000007110000847
:100030001102000800000000590F000879110008A3
:100040005F0100085F0100085F0100085F01000810
:100050005F0100085F0100085F0100085F01000800
:100060005F0100085F0100085F0100085F010008F0
:100070005F0100085F0100085F0100085F010008E0
:100080005F0100085F0100085F0100085F010008D0
:100090005F0100085F0100085F0100085F010008C0
:1000A0005F0100085F0100085F0100085F010008B0
:1000B0005F0100085F0100085F0100085F010008A0
:1000C0005F0100085F0100085F0100085F01000890
:1000D0005F010008CD120008E11200085F0100086E
:1000E0005F0100085F0100085F0100085F01000870
:1000F0005F0100085F0100085F0100085F01000860
:100100005F0100085F0100085F0100085F0100084F
:100110005F0100085F0100085F0100085F0100083F
:100120005F0100085F0100085F0100085F0100082F
:10013000DFF80CD000F040F800480047A516000892
:10014000382F00200648804706480047FEE7FEE7B4
:10015000FEE7FEE7FEE7FEE7FEE7FEE7FEE7FEE777
:100160006D1200083101000840EA01039B0703D02B
:1001700009E008C9121F08C0042AFAD203E011F8E6
:10018000013B00F8013B521EF9D2704730B50B46D7
:10019000014600202022012409E021FA02F59D42B7
:1001A00005D303FA02F5491B04FA02F52844151E8B
:1001B000A2F10102F1DC30BD064C074D06E0E0681B
:1001C00040F0010394E8070098471034AC42F6D39E
:1001D000FFF7B2FFE01A0008001B000800BFFEE7AF
:1001E00030B502460B464FF6FF7008E012F8014B9F
:1001F0004440E1B20012054C34F8114060401C1E2E
:10020000A3F10105EBB2F1D130BD0000E018000808
:10021000704700000149C86070470000002002409C
:1002200030B5044604254FF4302000F06FF8054641
:10023000042D17D10C48006940F002000A490861FA
:1002400008464461006940F0400008614FF43020E6
:1002500000F05CF805460448006941F6FD7108406D
:1002600001490861284630BD0020024004200B49A6
:10027000C96801F0010109B101200EE00749C96810
:1002800001F0040109B1022007E00449C96801F046
:10029000100109B1032000E0042070470020024053
:1002A0000348006940F08000014908617047000080
:1002B0000020024070B504460D460426F00200F00E
:1002C00025F80646042E11D10948006940F00100C6
:1002D000074908612580F00200F018F80646044836
:1002E000006941F6FE71084001490861304670BD61
:1002F00000200240024803494860034848607047B4
:100300002301674500200240AB89EFCD00B50246CE
:100310000423FFF7ABFF034603E0FFF7A7FF034605
:10032000521E012B01D1002AF7D102B9052318462C
:1003300000BD2DE9F04102460025002600200023E3
:100340000024002791F803C00CF00F0591F803C0BA
:100350000CF0100CBCF1000F03D091F802C04CEA75
:10036000050591F800C0BCF1000F31D014680020E1
:100370002BE04FF0010C0CFA00F3B1F800C00CEACE
:1003800003069E4220D183004FF00F0C0CFA03F7B6
:10039000BC4305FA03FC4CEA040491F803C0BCF129
:1003A000280F06D14FF0010C0CFA00FCC2F814C063
:1003B0000AE091F803C0BCF1480F05D14FF0010CE1
:1003C0000CFA00FCC2F810C0401C0828D1D31460FD
:1003D000B1F800C0BCF1FF0F34DD546800202EE0FE
:1003E00000F1080C4FF0010808FA0CF3B1F800C056
:1003F0000CEA03069E4221D183004FF00F0C0CFA49
:1004000003F7BC4305FA03FC4CEA040491F803C06B
:10041000BCF1280F05D100F1080C08FA0CF8C2F85D
:10042000148091F803C0BCF1480F07D100F1080C0B
:100430004FF0010808FA0CF8C2F81080401C082898
:10044000CED35460BDE8F081F0B50A460023002405
:100450000021002500F00046B6F1004F02D11D4EEC
:10046000F16901E01B4E7168C0F3034583B200F4EB
:100470004016B6F5401F08D121F07061154E766820
:1004800026F07066134F7E6012E000F48016B6F519
:10049000801F06D1032606FA05F4A14341F07061DE
:1004A00006E0460D360103FA06F6B14341F07061ED
:1004B00022B1460D360103FA06F6314300F000463C
:1004C000B6F1004F02D1034EF16101E0014E7160BF
:1004D000F0BD0000000001400148006870470000C6
:1004E0002C00002001460A290CDA074830F81100D8
:1004F000012807D1054830F81100034A22F81100FD
:10050000012070470020FCE7140B0020000B0020A6
:1005100000BFFEE710B545F2555000F031F802205B
:1005200000F022F840F6FF7000F024F800F014F814
:1005300000F002F810BD00004CF6CC400149086004
:1005400070470000003000404AF6AA2001490860C8
:1005500070470000003000404AF6AA2001490860B8
:1005600070470000003000400149486070470000BB
:1005700000300040014988607047000000300040B2
:1005800001490860704700000030004010B5024685
:1005900000200023054800EB410304E0048824B256
:1005A0001480921C801C9842F8D310BD0080000873
:1005B0002DE9F04105460E460024A0460427FFF72A
:1005C00099FE3420FFF726FE0C48FFF729FE074668
:1005D0000A4C04EB460807E0288881B22046FFF762
:1005E00069FE0746AD1CA41C444501D2042FF3D07C
:1005F000FFF756FE3846BDE8F08100000080000895
:1006000008B50121082000F0B9FC0121084600F0DE
:10061000B5FC01210848FFF717FF2020ADF80000C6
:1006200001208DF8020010208DF803006946034870
:10063000FFF77FFE08BD000000023000000C014003
:1006400000BFFEE700B599B0104800F09FF80F49D1
:10065000486801F0B7F80D484368B0F908200CA1CC
:10066000684600F04BFF6946114800F031FF07482B
:10067000D0F830330FA1D0F82C23684600F03EFFAD
:1006800069460B4800F024FF19B000BD3800002077
:100690000D0A53746174696F6E204E6F3A202564A1
:1006A0002C2042617564726174653A2025640000F3
:1006B000003801400D0A526567205374617274203E
:1006C0006164723A2025642C204C656E3A202564C2
:1006D0000000000000B599B0104800F057F80F492D
:1006E000486801F0B7F80D484368B0F908200CA13C
:1006F000684600F003FF6946114800F0E9FE07482C
:10070000D0F830330FA1D0F82C23684600F0F6FE65
:1007100069460B4800F0DCFE19B000BD9C050020C6
:100720000D0A53746174696F6E204E6F3A20256410
:100730002C2042617564726174653A202564000062
:10074000004400400D0A52656720537461727420A2
:100750006164723A2025642C204C656E3A20256431
:100760000000000038B504464FF4A06000F0EAFB3A
:100770008DF8004000208DF8010001208DF8020066
:100780008DF80300684600F0A5FB38BD30B5B3B066
:100790000446642101A8FFF7F9FEBDF8B80018B1BE
:1007A000BDF8B800FE2802DD0120ADF8B800BDF8A4
:1007B000BA00602816D0BDF8BA00C02812D0BDF823
:1007C000BA00B0F5C07F0DD0BDF8BA00B0F5107F0B
:1007D00008D0BDF8BA00B0F5906F03D04FF4906028
:1007E000ADF8BA00BDF8BC00401C80B2ADF8BC004A
:1007F000BDF8C000C82802DAC820ADF8C000BDF8B6
:10080000C000B0F57A7F03DD4FF47A70ADF8C00018
:10081000BDF8BE00BDF8C0104518B5F5803F06DB39
:10082000BDF8C0004FF6FF71081AADF8BE00BDF864
:10083000C400C82802DAC820ADF8C400BDF8C4005E
:10084000B0F57A7F03DD4FF47A70ADF8C400BDF8DF
:10085000C200BDF8C4104518B5F5803F06DBBDF8F1
:10086000C4004FF6FF71081AADF8C200BDF8B80019
:1008700000B22081BDF8BA00642148436060BDF831
:10088000BE00C4F83C03BDF8C000C4F84003BDF886
:10089000BE00BDF8C0100844C4F84403BDF8C01041
:1008A000480000F059FFC4F84803D4F8480318B9C9
:1008B00042F20F70C4F84003BDF8C20004F54B7457
:1008C0002060BDF8C4006060BDF8C200BDF8C4106F
:1008D0000844A060BDF8C410480000F03DFFE0608F
:1008E000E068A4F54B7418B942F20F70C4F83003F5
:1008F000D4F83023D4F8381301EB4201A1F1C80039
:10090000C82201A9FFF730FC6068B0F5164F16D079
:1009100006DCB0F5165F0AD0B0F5964F1BD10AE0A1
:10092000B0F5614F0FD0B0F5E13F14D10FE00F20CB
:1009300084F8580513E00A2084F858050FE00520D4
:1009400084F858050BE0052084F8580507E00520D9
:1009500084F8580503E00A2084F8580500BF00BF5A
:10096000002084F8540584F85705A4F85A0501209E
:1009700084F85C0504F55370C4F84C0504F24C404F
:10098000C4F8500533B030BD2DE9F04104460E46A1
:1009900004F24C542068407840F080002168487090
:1009A000607B2168887003212068FFF719FC0746E7
:1009B0002168CF7038122168A4F24C5408710025C8
:1009C0000DE0D4F84C05415D304600F06CFD00BFF1
:1009D0004021304600F09AFC0028F9D06D1C052D0E
:1009E000EFDBBDE8F08170B504460E4640F22551BC
:1009F000304600F098FCD8B1304600F04FFDC5B24B
:100A000094F8570588B1B4F90800A84205D094F8C5
:100A1000540510B9002084F8570594F85415481C63
:100A200084F85405D4F8500545540020A4F85A051C
:100A300040F22771304600F076FC28B1002240F2E7
:100A40002771304600F099FC70BD2DE9F041044655
:100A50000E4604F24C54A27A921ED1B22068FFF7DF
:100A6000BFFB0746A07A801E226817543912A07A6D
:100A70002268A4F24C54401E115400250DE0D4F815
:100A80004C05415D304600F00EFD00BF4021304670
:100A900000F03CFC0028F9D06D1C94F85605A842E3
:100AA000EDDCBDE8F0812DE9FE4F0446D4F84C554D
:100AB000687840B16878062802DD68780F2802DB84
:100AC0006878102802DD0120BDE8FE8F94F85505F6
:100AD000FA2803DC94F85505082801DA0320F3E727
:100AE00094F85505801EC1B22846FFF779FB0290A5
:100AF00094F85505801E295C94F85505401E285C25
:100B000041EA00210191DDE90110884201D0032072
:100B1000DAE7E878A97840EA01276879297940EA94
:100B200001286878012802D06878022853D1B8F5E6
:100B3000707F01DD0320C7E7D4F83C03B84201DD34
:100B40000220C1E707EB0800D4F84413884201DB18
:100B50000220B9E7AE1C08F0070010B94FEAE80020
:100B600002E04FEAE800401C06F8010BB4F83C0331
:100B7000381A80B200904FF0000BD94623E0D4F829
:100B80004813009831F8100030B13078012101FA93
:100B90000BF10843307005E03178012000FA0BF0CA
:100BA000814331700BF10100C0B28346082802DB9B
:100BB0004FF0000B761C0098401C80B2009009F1A9
:100BC00001001FFA80F9C145D9DBA878401D84F8DF
:100BD0005605002078E76878052824D1D4F83C032E
:100BE000B84201DC02206FE7B8F57F4F08D1012041
:100BF000D4F83C23BA1AD4F8481321F812000DE0B7
:100C0000B8F1000F08D10020D4F83C23BA1AD4F868
:100C1000481321F8120001E0032055E7082084F86A
:100C20005605002050E768780F2838D1D4F83C03E7
:100C3000B84201DD022047E707EB0800D4F844136F
:100C4000884201DB02203FE74FF0000BEE1DD4F895
:100C50003C13791AD4F8480300EB410AD94617E04F
:100C60003078012101FA0BF1084008B1012000E0C1
:100C700000202AF8020B0BF10100C0B283460828BD
:100C800002DB4FF0000B761C09F101001FFA80F91E
:100C9000C145E5DB082084F85605002014E7687894
:100CA000032802D06878042839D1B8F17D0F01DD1E
:100CB000032009E7D4F82C03B84201DD022003E742
:100CC00007EB0800D4F83413884201DB0220FBE66E
:100CD000AE1CD4F82C13791AD4F8380300EB410A6F
:100CE0004FEA4860000E06F8010B4FF000090EE0D5
:100CF000BAF80000000A06F8010B9AF8000006F89E
:100D0000010B0AF1020A09F101001FFA80F9C1453D
:100D1000EEDBA878401D84F856050020D4E66878FC
:100D2000062816D1D4F82C03B84201DC0220CBE609
:100D30000FFA88F0D4F82C23BA1AD4F8381321F813
:100D40001200012084F85C05082084F85605002074
:100D5000BAE66878102835D1D4F82C03B84201DD02
:100D60000220B1E607EB0800D4F83413884201DB17
:100D70000220A9E6EE1DD4F82C13791AD4F8380312
:100D800000EB410A4FF0000912E016F8011B0802BF
:100D900000B2AAF8000016F8010BBAF900100843D7
:100DA000AAF800000AF1020A09F101001FFA80F90D
:100DB000C145EADB012084F85C05082084F856056B
:100DC000002081E601207FE610B5044694F85C051A
:100DD00068B1D4F83023D4F8381301EB4201A1F103
:100DE000C8006421FFF7E4FB002084F85C0510BD17
:100DF0002DE9F04104460F46B4F85A0594F8581509
:100E000088423BDD04F24C542668606820606660CE
:100E1000207A6072002020720120E072607AA4F2D1
:100E20004C54082827DBD4F84C050078B4F9081096
:100E3000884220D1FFF750FB05462046FFF733FEDE
:100E400084F8590594F8590520B139462046FFF732
:100E50009BFD10E039462046FFF7F7FDB4F860052A
:100E6000281A01B2D4F830030838D4F8382322F80D
:100E70001010C4F860550020A4F85A05BDE8F081B0
:100E80000348B0F85A05401C0149A1F85A057047BB
:100E9000380000200348B0F85A05401C0149A1F869
:100EA0005A0570479C05002010B502490248FFF71B
:100EB0009FFF10BD003801403800002010B50249E6
:100EC0000248FFF795FF10BD004400409C0500203C
:100ED0007047000070B5002100230F22C47804B3CE
:100EE000154C246804F4E064C4F5E064210AC1F1FF
:100EF0000403CA40447804FA03F18478144021437F
:100F000009010E4C0678A155047804F01F05012450
:100F1000AC4005786D11AD0005F1E025C5F8004144
:100F200009E0047804F01F050124AC40044D067864
:100F3000761145F8264070BD0CED00E000E400E0BD
:100F400080E100E002490143024A1160704700005D
:100F50000000FA050CED00E07047000029B1064AD8
:100F6000D2690243044BDA6104E0034AD269824346
:100F7000014BDA61704700000010024029B1064AB7
:100F800092690243044B9A6104E0034A92698243E6
:100F9000014B9A61704700000010024030B50021FB
:100FA0000022002400232D4D6D6805F00C0121B1B5
:100FB000042905D0082923D105E0294D056022E048
:100FC000274D05601FE0254D6D6805F47012234D17
:100FD0006D6805F48034022505EB92421CB9214D61
:100FE000554305600BE01D4D6D6805F400351DB1DE
:100FF0001C4D5543056002E0194D5543056002E064
:10100000174D056000BF00BF144D6D6805F0F0017D
:101010000909154D6B5C0568DD4045600F4D6D6835
:1010200005F4E061090A104D6B5C4568DD408560A0
:101030000A4D6D6805F46051C90A0B4D6B5C45683B
:10104000DD40C560054D6D6805F44041890B074DD5
:101050006B5CC568B5FBF3F5056130BD001002405F
:1010600000127A0000093D00140000202400002036
:10107000704710B500F002F810BD00000CB500205C
:10108000019000903348006840F480303149086096
:1010900000BF3048006800F4003000900198401C08
:1010A0000190009818B90198B0F5A06FF1D12948C6
:1010B000006800F4003010B10120009001E0002031
:1010C00000900098012843D12348006840F01000A8
:1010D000214908600846006820F0030008600846BF
:1010E000006840F0020008601A48406819494860EA
:1010F0000846406848600846406840F480604860A0
:101100000846406820F47C1048600846406840F477
:10111000E81048600846006840F08070086000BF32
:101120000C48006800F000700028F9D009484068B9
:1011300020F00300074948600846406840F002007C
:10114000486000BF0348406800F00C000828F9D14F
:101150000CBD000000100240002002400A2806DA00
:101160004A1C034B23F81020024B23F81020704731
:10117000000B0020140B002010B5FFF781FEFFF7D5
:1011800089FE0F480068401C0D4908600D48006842
:1011900020B90C480068401E0A49086000240CE091
:1011A000094830F81400012806DD074830F814001B
:1011B000401E054921F81400641C0A2CF0DB10BD08
:1011C0002C00002028000020140B002070B52149BD
:1011D00009684FF47A73B1FBF3F2B2F1807F01D367
:1011E00001211DE022F07F41491E4FF0E0235961AB
:1011F00059170F23002907DA1C07260E164C01F099
:101200000F052D1F665503E01C07250E134C655472
:1012100000BF00214FF0E0239961072119610021EF
:1012200009B100BFFEE74FF0E021096961F001015B
:101230004FF0E0221161002009E00021084A22F865
:101240001010084A22F81010074A1154401C0A28AE
:10125000F3DB70BD0000002018ED00E000E400E0CA
:10126000000B0020140B0020280B002010B51348A1
:10127000006840F0010011490860084640681049C4
:1012800008400E494860084600680E4908400B496E
:1012900008600846006820F480200860084640681E
:1012A00020F4FE0048604FF41F008860FFF7E1FE65
:1012B0004FF000600449086010BD000000100240BB
:1012C0000000FFF8FFFFF6FE08ED00E010B5024950
:1012D0000248FFF788FB10BD0038014038000020AD
:1012E00010B502490248FFF77EFB10BD00440040E4
:1012F0009C05002021B1828942F40052828104E0E1
:1013000082894DF6FF731A408281704702460020A1
:10131000B1F5007F00D100BF13880B400BB1012055
:1013200000E00020704770B502460024002300252D
:10133000002040F66A16B14200D100BFC1F3421549
:1013400001F01F03012606FA03F3012D02D196894D
:10135000334006E0022D02D1168A334001E0968A1E
:1013600033400C12012606FA04F41688344013B1F7
:101370000CB1012000E0002070BDF0B50346002450
:1013800000260025002040F66A17B94200D100BFB0
:101390001846C1F3421401F01F06012707FA06F5AB
:1013A000012C01D10C3004E0022C01D1103000E0FE
:1013B00014301AB107682F43076002E00768AF4393
:1013C0000760F0BD2DE9F04786B005460E460024C3
:1013D000A24600BFA1460027B08900B100BF2F463A
:1013E0002C8A4CF6FF700440F08804432C82AC89B0
:1013F0004EF6F3100440B0883189084371890843E0
:101400000443AC81AC8A4FF6FF400440B0890443EA
:10141000AC8201A8FFF7C2FD1F48874202D1DDF868
:1014200010A001E0DDF80CA0A88900F4004040B154
:101430000AEBCA0000EB0A1031684900B0FBF1F872
:1014400007E00AEBCA0000EB0A1031688900B0FB24
:10145000F1F86420B8FBF0F004012009642101FBDD
:101460001089A88900F4004040B1322000EBC90087
:10147000B0FBF1F000F00700044308E0322000EB7D
:1014800009106421B0FBF1F000F00F0004432C813F
:1014900006B0BDE8F08700000038014001468888AA
:1014A000C0F308007047C1F308028280704700BF94
:1014B000FEE770B504460D4629462046FFF7F3FFC8
:1014C00000BF80212046FFF721FF0028F9D070BD22
:1014D00070B506460C46002500BF615D3046FFF73B
:1014E000E8FF6D1C605D0028F7D100BF4021304649
:1014F000FFF70CFF0028F9D070BD00000FB4084BB7
:1015000010B504A902AA039800F01CF8044602A929
:10151000002000F0C1F8204610BC5DF814FB00006C
:101520009916000802E008C8121F08C1002AFAD163
:1015300070477047002001E001C1121F002AFBD153
:10154000704700002DE9FF4F89B09B4604460025F7
:1015500006E025280BD05A460B999047641C6D1C59
:1015600020780028F5D10DB02846BDE8F08F00277F
:10157000B8460122474900E0074314F8013F203BE9
:1015800002FA03F00842F7D120782E2819D114F876
:10159000010F47F004072A280ED06FF02F022078A1
:1015A000A0F1300109290CD808EB880102EB4101B8
:1015B00000EB0108641CF2E70A98641C50F8048BE5
:1015C0000A9020780028CED0642808D0692806D058
:1015D00075281ED05A460B9990476D1C58E00A9901
:1015E0004FF00A0901C90A91002802DA40422D2170
:1015F00002E0390504D52B218DF82010012103E0EC
:10160000F90704D02021F7E78A4608AE0DE0002153
:10161000FAE70A994FF00A0901C90A91F7E7494622
:10162000FEF7B4FD303106F8011D0028F7D1ADEB0F
:10163000060000F12009780701D44FF00108C845E1
:1016400002DDA8EB090000E000208046002706E04C
:1016500008A85A46C05D0B9990476D1C7F1C5745E2
:10166000F6DB04E030205A460B9990476D1CB8F128
:101670000001A8F10108F5DC05E016F8010B5A4657
:101680000B9990476D1CB9F10001A9F10109F4DC37
:10169000641C65E7092801000A68531C0B60107080
:1016A00070470000FFF792FDFEF7AAFFFEF7CAFFA2
:1016B000FFF710F8C8210120FFF750FD4FF47A71B1
:1016C0000220FFF74BFD4FF47A710320FFF746FD30
:1016D00064210420FFF742FDFEF71CFF20201B4978
:1016E000086031E0FFF7E0FBFFF7E8FB0220FEF7C0
:1016F000F9FE48B115480838006880F02000134909
:1017000008390860FEF720FF0320FEF7EBFED8B192
:101710000F4890F85C0528B1C8220D490A310D48E0
:10172000FEF722FD0B480A3890F85C0528B1C82264
:10173000084907480A30FEF717FD0548FFF744FB44
:1017400004480A38FFF740FBCCE70000140C0140C6
:1017500038000020A6050020F0B50B30154D20F014
:1017600007010024144A0FE003688B420BD38B421D
:1017700005D95E1A43184768C3E9006700E043686B
:10178000136002C004E0021D10680028ECD120465E
:10179000002802D1286808B10020F0BD064A074899
:1017A0001060074A121A22F00702C0E90024012043
:1017B0002860D7E734000020300000203C0B0020D8
:1017C000382B002010B586B0044601210420FFF715
:1017D000D5FB01218803FFF7D1FB4FF40070ADF872
:1017E000140018208DF8170003208DF8160005A9A5
:1017F0001648FEF79EFD4FF48060ADF814000420FB
:101800008DF8170005A91148FEF793FD01940020FB
:10181000ADF80800ADF80A00ADF80C00ADF8100006
:101820000C20ADF80E0001A90948FFF7CBFD2520DB
:10183000FEF798FF012240F225510548FFF79DFD74
:1018400001210348FFF756FD06B010BD0008014016
:101850000038014010B586B0044601210420FFF78E
:101860008DFB01214804FFF779FB0420ADF814003B
:1018700018208DF8170003208DF8160005A91648CA
:10188000FEF757FD0820ADF8140004208DF817006E
:1018900005A91148FEF74DFD01940020ADF80800A0
:1018A000ADF80A00ADF80C00ADF810000C20ADF852
:1018B0000E0001A90948FFF785FD2620FEF752FF1B
:1018C000012240F225510548FFF757FD0121034849
:1018D000FFF710FD06B010BD0008014000440040B5
:1018E0000000C1C081C1400101C3C003800241C2E8
:1018F00001C6C006800741C70005C1C581C44004B8
:1019000001CCC00C800D41CD000FC1CF81CE400E67
:10191000000AC1CA81CB400B01C9C009800841C877
:1019200001D8C018801941D9001BC1DB81DA401AE7
:10193000001EC1DE81DF401F01DDC01D801C41DCB7
:101940000014C1D481D5401501D7C017801641D6E7
:1019500001D2C012801341D30011C1D181D04010F7
:1019600001F0C030803141F10033C1F381F24032E7
:101970000036C1F681F7403701F5C035803441F4B7
:10198000003CC1FC81FD403D01FFC03F803E41FE67
:1019900001FAC03A803B41FB0039C1F981F8403877
:1019A0000028C1E881E9402901EBC02B802A41EAE7
:1019B00001EEC02E802F41EF002DC1ED81EC402CB7
:1019C00001E4C024802541E50027C1E781E64026E7
:1019D0000022C1E281E3402301E1C021802041E0F7
:1019E00001A0C060806141A10063C1A381A24062E7
:1019F0000066C1A681A7406701A5C065806441A4B7
:101A0000006CC1AC81AD406D01AFC06F806E41AE66
:101A100001AAC06A806B41AB0069C1A981A8406876
:101A20000078C1B881B9407901BBC07B807A41BAE6
:101A300001BEC07E807F41BF007DC1BD81BC407CB6
:101A400001B4C074807541B50077C1B781B64076E6
:101A50000072C1B281B3407301B1C071807041B0F6
:101A60000050C190819140510193C05380524192E6
:101A70000196C056805741970055C19581944054B6
:101A8000019CC05C805D419D005FC19F819E405E66
:101A9000005AC19A819B405B0199C0598058419876
:101AA0000188C04880494189004BC18B818A404AE6
:101AB000004EC18E818F404F018DC04D804C418CB6
:101AC0000044C184818540450187C04780464186E6
:101AD0000182C042804341830041C18181804040F6
:101AE000001B00080000002038000000241500083A
:101AF000381B000838000020002F000034150008B3
:101B000000A24A04000000000000000001020304DB
:101B10000607080900000000010203040102030493
:101B20000607080902040608000000000000000083
:081B30000000000000000000AD
:0400000508000131BD
:00000001FF
