:020000040800F2
:10000000601C002045010008A10D00080D06000835
:10001000F5070008DD010008731300080000000068
:10002000000000000000000000000000210F000898
:100030009102000800000000290E000829100008A5
:100040005F0100085F0100085F0100085F01000810
:100050005F0100085F010008930200085F010008CB
:100060005F0100085F0100085F010008110200083D
:100070005F0100085F0100085F0100085F010008E0
:100080005F0100085F0100085F0100085F010008D0
:100090005F0100085F0100085F0100085F010008C0
:1000A0005F0100085F0100085F0100085F010008B0
:1000B0005F0100085F0100085F0100085F010008A0
:1000C0005F0100085F0100085F0100085F01000890
:1000D0005F010008791100085F0100085F01000856
:1000E000A50200085F0100085F0100085F01000829
:1000F0005F0100085F0100085F0100085F01000860
:100100005F0100085F0100085F0100085F0100084F
:100110005F0100085F0100085F0100085F0100083F
:100120005F0100085F0100085F0100085F0100082F
:10013000DFF80CD000F040F80048004769150008CF
:10014000601C00200648804706480047FEE7FEE79F
:10015000FEE7FEE7FEE7FEE7FEE7FEE7FEE7FEE777
:10016000191100083101000840EA01039B0703D080
:1001700009E008C9121F08C0042AFAD203E011F8E6
:10018000013B00F8013B521EF9D2704730B50B46D7
:10019000014600202022012409E021FA02F59D42B7
:1001A00005D303FA02F5491B04FA02F52844151E8B
:1001B000A2F10102F1DC30BD064C074D06E0E0681B
:1001C00040F0010394E8070098471034AC42F6D39E
:1001D000FFF7B2FFDC170008FC17000800BFFEE7BE
:1001E00030B502460B464FF6FF7008E012F8014B9F
:1001F0004440E1B20012054C34F8114060401C004C
:10020000A3F10105EBB2F1D130BD0000DC1500080F
:1002100010B5022000F026F801280ED1022000F0CF
:1002200013F80648006840B94FF4166204490548BF
:10023000FFF79AFF01200149086010BD300000203F
:100240009E050020FE0E002000F0805111B10349F0
:10025000086001E002494860704700000404024061
:100260000000024001460020002201F0805313B13B
:10027000054B1A6801E0054B1A6802EA01030BB14D
:10028000012000E00020704700040240000002400E
:10029000704710B5012000F017F810B1012000F0F0
:1002A0000DF810BD10B54FF4005000F00DF818B166
:1002B0004FF4005000F002F810BD00000149086042
:1002C0007047000014040140014600200022074B43
:1002D0001B6803EA0102054B14331B680B4013B182
:1002E0000AB1012000E00020704700000004014036
:1002F0000149C860704700000020024030B5044644
:1003000004254FF4302000F085F80546042D17D160
:100310000C48006940F002000A490861084644613F
:10032000006940F0400008614FF4302000F072F89E
:1003300005460448006941F6FD710840014908611D
:10034000284630BD0020024004200B49C96801F056
:10035000010109B101200EE00749C96801F004015B
:1003600009B1022007E00449C96801F0100109B190
:10037000032000E004207047002002400348006989
:1003800040F08000014908617047000000200240F1
:1003900078B506460C46042500200090E80200F0DF
:1003A00039F80546042D24D11348006940F00100B6
:1003B000114908613480E80200F02CF80546042D4C
:1003C00010D1B01C0090200C00990880E80200F0C9
:1003D00021F805460848006941F6FE7108400649C3
:1003E000086106E00448006941F6FE7108400249D0
:1003F0000861284678BD00000020024002480349F9
:100400004860034848607047230167450020024068
:10041000AB89EFCD00B502460423FFF795FF0346F5
:1004200003E0FFF791FF0346521E012B01D1002A82
:10043000F7D102B90523184600BD2DE9F041024667
:1004400000250026002000230024002791F803C087
:100450000CF00F0591F803C00CF0100CBCF1000F6C
:1004600003D091F802C04CEA050591F800C0BCF138
:10047000000F31D0146800202BE04FF0010C0CFA73
:1004800000F3B1F800C00CEA03069E4220D18300BD
:100490004FF00F0C0CFA03F7BC4305FA03FC4CEACF
:1004A000040491F803C0BCF1280F06D14FF0010CF1
:1004B0000CFA00FCC2F814C00AE091F803C0BCF1C9
:1004C000480F05D14FF0010C0CFA00FCC2F810C027
:1004D000401C0828D1D31460B1F800C0BCF1FF0F54
:1004E00034DD546800202EE000F1080C4FF00108C4
:1004F00008FA0CF3B1F800C00CEA03069E4221D1C1
:1005000083004FF00F0C0CFA03F7BC4305FA03FC11
:100510004CEA040491F803C0BCF1280F05D100F1A6
:10052000080C08FA0CF8C2F8148091F803C0BCF16A
:10053000480F07D100F1080C4FF0010808FA0CF839
:10054000C2F81080401C0828CED35460BDE8F0816A
:10055000F0B50A46002300240021002500F00046E3
:10056000B6F1004F02D11D4EF16901E01B4E7168DA
:10057000C0F3034583B200F44016B6F5401F08D11E
:1005800021F07061154E766826F07066134F7E601C
:1005900012E000F48016B6F5801F06D1032606FA95
:1005A00005F4A14341F0706106E0460D360103FAFF
:1005B00006F6B14341F0706122B1460D360103FAEF
:1005C00006F6314300F00046B6F1004F02D1034E6B
:1005D000F16101E0014E7160F0BD000000000140DA
:1005E00001460A290CDA074830F81100012807D122
:1005F000054830F81100034A22F811000120704725
:100600000020FCE7800500206C05002000BFFEE70D
:1006100010B545F2555000F031F8022000F022F8F4
:1006200040F6FF7000F024F800F014F800F002F833
:1006300010BD00004CF6CC40014908607047000036
:10064000003000404AF6AA200149086070470000C7
:10065000003000404AF6AA200149086070470000B7
:100660000030004001494860704700000030004001
:10067000014988607047000000300040014908606F
:10068000704700000030004010B5024600200023F3
:10069000054800EB810304E0046824B21480921C36
:1006A000001D9842F8D310BD008000082DE9F041EC
:1006B00005460E460024A0460427FFF79FFE34207F
:1006C000FFF716FE0C48FFF719FE07460A4C04EB2D
:1006D000860807E0B5F900102046FFF759FE0746E7
:1006E000AD1C241D444501D2042FF3D0FFF746FE74
:1006F0003846BDE8F08100000080000808B50121FF
:100700000C2000F093FB0121084600F08FFB012133
:100710000848FFF71DFF0220ADF8000001208DF80A
:10072000020010208DF8030069460348FFF785FE9C
:1007300008BD0000000230000008014010B586B07E
:1007400004460121042000F071FB0121880300F020
:100750006DFB4FF40070ADF8140018208DF81700F1
:1007600003208DF8160005A91648FFF766FE4FF422
:100770008060ADF8140004208DF8170005A9114819
:10078000FFF75BFE01940020ADF80800ADF80A0009
:10079000ADF80C00ADF810000C20ADF80E0001A96A
:1007A000094800F071FD00F011F8012240F22551D6
:1007B000054800F044FD0121034800F0FDFC06B0AF
:1007C00010BD0000000801400038014008B54FF49A
:1007D000A06000F01FFB25208DF8000000208DF8A0
:1007E000010001208DF802008DF80300684600F03A
:1007F000D9FA08BD00BFFEE72DE9FE4F0546D5F842
:100800002445607840B16078062802DD60780F28C2
:1008100002DB6078102802DD0120BDE8FE8F95F82C
:100820002D05FA2803DC95F82D05082801DA0320A8
:10083000F3E795F82D05801EC1B22046FFF7D0FCE6
:10084000029095F82D05801E215C95F82D05401E1F
:10085000205C41EA00210191DDE90110884201D0CC
:100860000320DAE7E078A17840EA0127607921796E
:1008700040EA01286078012802D06078022847D138
:10088000B8F5707F01DD0320C7E707EB0800C82833
:1008900001DB0220C1E7A61C08F0070010B94FEAEF
:1008A000E80002E04FEAE800401C06F8010B009760
:1008B0004FF0000BD94623E005F5CA70009930F8D7
:1008C000110030B13078012101FA0BF1084330708A
:1008D00005E03078012101FA0BF1884330700BF10B
:1008E0000100C0B28346082802DB4FF0000B761CE3
:1008F0000098401C80B2009009F101001FFA80F9B5
:10090000C145D9DBA078401D85F82E05002084E77D
:10091000607805281CD1C82F01DB02207DE7B8F5DF
:100920007F4F05D1012105F5CA7020F817100AE0A4
:10093000B8F1000F05D1002105F5CA7020F8171095
:1009400001E0032069E7082085F82E05002064E710
:1009500060780F282DD107EB0800C82801DB0220A2
:100960005BE74FF0000BE61D05F5CA7000EB470A88
:10097000D94617E03178012000FA0BF0014009B1A7
:10098000012000E000202AF8020B0BF10100C0B2A8
:100990008346082802DB4FF0000B761C09F10100AA
:1009A0001FFA80F9C145E5DB082085F82E050020F7
:1009B00033E76078032802D0607804282ED1B8F19C
:1009C0007D0F01DD032028E707EB0800C82801DBC5
:1009D000022022E7A61C281D00EB470A4FEA4860C8
:1009E000000E06F8010BB9460EE0BAF80000000A46
:1009F00006F8010B9AF8000006F8010B0AF1020A4A
:100A000009F101001FFA80F907EB08004845ECDC0A
:100A1000A078401D85F82E050020FEE660780628A7
:100A200010D1C82F01DB0220F7E60FFA88F1281D4C
:100A300020F81710012085F83405082085F82E05C8
:100A40000020EAE6607810282AD107EB0800C828C1
:100A500001DB0220E1E6E61D281D00EB470AB9464E
:100A600012E016F8011B080200B2AAF8000016F8FE
:100A7000010BBAF900100843AAF800000AF1020AB3
:100A800009F101001FFA80F907EB08004845E8DC8E
:100A9000012085F83405082085F82E050020BCE6E5
:100AA0000020BAE670B50446C821201DFFF7ECFD12
:100AB000B4F9CC50002D01DBFF2D02DD0121A4F89B
:100AC000CC10B4F9CE50602D0BD0C02D09D0B5F5A7
:100AD000C07F06D0B5F5906F03D04FF49061A4F8B5
:100AE000CE10B4F8D000401C01B2A4F8D010B4F875
:100AF000CC006080B4F8CE002080B4F900006028FB
:100B000008D0C0280AD0B0F5C07F0BD0B0F5906FE8
:100B100010D10BE00F2084F830050FE00A2084F894
:100B200030050BE0052084F8300507E0052084F847
:100B3000300503E00A2084F8300500BF00BF002024
:100B400084F82C0584F82F05A4F8320584F83405C0
:100B500004F54970C4F8240504F22440C4F82805BB
:100B600070BD2DE9F04104460E4604F2245420687D
:100B7000407840F0800021684870607B2168887070
:100B800003212068FFF72CFB07462168CF7038123D
:100B90002168A4F22454087100250DE0D4F824053E
:100BA000415D304600F0E1FB00BF4021304600F0DF
:100BB0000FFB0028F9D06D1C052DEFDBBDE8F0819F
:100BC00090F82F258AB1B0F902208A4205D090F81A
:100BD0002C2512B9002280F82F2590F82C355A1CAC
:100BE00080F82C25D0F82825D1540022A0F83225F1
:100BF00070472DE9F04104460E4604F22454A27ACF
:100C0000921ED1B22068FFF7EBFA0746A07A801E49
:100C1000226817543912A07A2268A4F22454401E84
:100C2000115400250DE0D4F82405415D304600F054
:100C30009CFB00BF4021304600F0CAFA0028F9D0E2
:100C40006D1C94F82E05A842EDDCBDE8F08170B56E
:100C5000044694F8340528B3B4F9CC50002D01DBD8
:100C6000FF2D02DD0121A4F8CC10B4F9CE50602D87
:100C70000BD0C02D09D0B5F5C07F06D0B5F5906F6B
:100C800003D04FF49061A4F8CE10B4F8CC0060808B
:100C9000B4F8CE002080C821201DFFF707FD0020FA
:100CA00084F8340570BD70B504460E46B4F83205BC
:100CB00094F8301588422BDD04F2245425686068CE
:100CC00020606560207A6072002020720120E0724E
:100CD000607AA4F22454082817DBD4F8240500789D
:100CE000B4F90210884210D12046FFF785FD84F840
:100CF000310594F8310520B131462046FFF731FF28
:100D000003E031462046FFF774FF0020A4F83205C7
:100D100070BD00000348B0F83205401C0149A1F83D
:100D2000320570473400002010B59AB00D48FFF727
:100D3000B9FEFFF74BFD0B48B0F90000642100FB42
:100D400001F42046FFF7FAFC0648B0F902202346DA
:100D500005A101A800F034FB01A90B4800F01AFB23
:100D60001AB010BD340000200D0A53746174696F0D
:100D70006E204E6F3A2025642C20426175647261AA
:100D800074653A20256400000038014010B502491E
:100D90000248FFF788FF10BD0038014034000020F2
:100DA0007047000070B5002100230F22C47804B3FF
:100DB000154C246804F4E064C4F5E064210AC1F130
:100DC0000403CA40447804FA03F1847814402143B0
:100DD00009010E4C0678A155047804F01F05012482
:100DE000AC4005786D11AD0005F1E025C5F8004176
:100DF00009E0047804F01F050124AC40044D067896
:100E0000761145F8264070BD0CED00E000E400E0EE
:100E100080E100E002490143024A1160704700008E
:100E20000000FA050CED00E07047000029B1064A09
:100E300092690243044B9A6104E0034A9269824337
:100E4000014B9A61704700000010024030B500214C
:100E50000022002400232D4D6D6805F00C0121B106
:100E6000042905D0082923D105E0294D056022E099
:100E7000274D05601FE0254D6D6805F47012234D68
:100E80006D6805F48034022505EB92421CB9214DB2
:100E9000554305600BE01D4D6D6805F400351DB12F
:100EA0001C4D5543056002E0194D5543056002E0B5
:100EB000174D056000BF00BF144D6D6805F0F001CF
:100EC0000909154D6B5C0568DD4045600F4D6D6887
:100ED00005F4E061090A104D6B5C4568DD408560F2
:100EE0000A4D6D6805F46051C90A0B4D6B5C45688D
:100EF000DD40C560054D6D6805F44041890B074D27
:100F00006B5CC568B5FBF3F5056130BD00100240B0
:100F100000127A0000093D00140000202400002087
:100F2000704710B500F002F810BD00000CB50020AD
:100F3000019000903348006840F4803031490860E7
:100F400000BF3048006800F4003000900198401C59
:100F50000190009818B90198B0F5A06FF1D1294817
:100F6000006800F4003010B10120009001E0002082
:100F700000900098012843D12348006840F01000F9
:100F8000214908600846006820F003000860084610
:100F9000006840F0020008601A484068194948603B
:100FA0000846406848600846406840F480604860F1
:100FB0000846406820F47C1048600846406840F4C9
:100FC000E81048600846006840F08070086000BF84
:100FD0000C48006800F000700028F9D0094840680B
:100FE00020F00300074948600846406840F00200CE
:100FF000486000BF0348406800F00C000828F9D1A1
:101000000CBD000000100240002002400A2806DA51
:101010004A1C034B23F81020024B23F81020704782
:101020006C0500208005002010B5FFF773FE0F4807
:101030000068401C0D4908600D48006820B90C4844
:101040000068401E0A49086000240CE0094830F896
:101050001400012806DD074830F81400401E054939
:1010600021F81400641C0A2CF0DB10BD2C000020B9
:10107000280000208005002070B52149096842F24F
:101080001073B1FBF3F2B2F1807F01D301211DE0B7
:1010900022F07F41491E4FF0E023596159170F2379
:1010A000002907DA1C07260E164C01F00F052D1F2C
:1010B000665503E01C07250E134C655400BF002144
:1010C0004FF0E023996107211961002109B100BFA8
:1010D000FEE74FF0E021096961F001014FF0E022E5
:1010E0001161002009E00021084A22F81010084A86
:1010F00022F81010074A1154401C0A28F3DB70BD77
:101100000000002018ED00E000E400E06C05002085
:10111000800500209405002010B51348006840F0B9
:1011200001001149086008464068104908400E490E
:101130004860084600680E4908400B4908600846A8
:10114000006820F4802008600846406820F4FE0013
:1011500048604FF41F008860FFF7E3FE4FF0006027
:101160000449086010BD0000001002400000FFF8B4
:10117000FFFFF6FE08ED00E010B540F225510C48E7
:1011800000F033F838B10A4800F0EAF8C4B221465A
:101190000848FFF715FD40F22771054800F025F8D3
:1011A00028B1002240F22771014800F048F810BD34
:1011B000003801403400002021B1828942F40052FD
:1011C000828104E082894DF6FF731A408281704764
:1011D00002460020B1F5007F00D100BF13880B400C
:1011E0000BB1012000E00020704770B502460024DA
:1011F00000230025002040F66A16B14200D100BF4E
:10120000C1F3421501F01F03012606FA03F3012D75
:1012100002D19689334006E0022D02D1168A33406E
:1012200001E0968A33400C12012606FA04F416886F
:10123000344013B10CB1012000E0002070BDF0B5C6
:101240000346002400260025002040F66A17B94214
:1012500000D100BF1846C1F3421401F01F06012758
:1012600007FA06F5012C01D10C3004E0022C01D163
:10127000103000E014301AB107682F43076002E015
:101280000768AF430760F0BD2DE9F04786B005461B
:101290000E460024A24600BFA1460027B08900B137
:1012A00000BF2F462C8A4CF6FF700440F0880443A0
:1012B0002C82AC894EF6F3100440B0883189084383
:1012C000718908430443AC81AC8A4FF6FF40044067
:1012D000B0890443AC8201A8FFF7B8FD1F488742DC
:1012E00002D1DDF810A001E0DDF80CA0A88900F41F
:1012F000004040B10AEBCA0000EB0A103168490017
:10130000B0FBF1F807E00AEBCA0000EB0A10316805
:101310008900B0FBF1F86420B8FBF0F0040120096B
:10132000642101FB1089A88900F4004040B13220FB
:1013300000EBC900B0FBF1F000F00700044308E047
:10134000322000EB09106421B0FBF1F000F00F0037
:1013500004432C8106B0BDE8F0870000003801404E
:1013600001468888C0F308007047C1F308028280F4
:10137000704700BFFEE770B504460D46294620467B
:10138000FFF7F3FF00BF80212046FFF721FF002871
:10139000F9D070BD70B506460C46002500BF615DF2
:1013A0003046FFF7E8FF6D1C605D0028F7D100BFF5
:1013B00040213046FFF70CFF0028F9D070BD000037
:1013C0000FB4084B10B504A902AA039800F01CF84A
:1013D000044602A9002000F0C1F8204610BC5DF8C8
:1013E00014FB00005D15000802E008C8121F08C1C8
:1013F000002AFAD170477047002001E001C1121F96
:10140000002AFBD1704700002DE9FF4F89B09B46B1
:101410000446002506E025280BD05A460B99904734
:10142000641C6D1C20780028F5D10DB02846BDE85D
:10143000F08F0027B8460122474900E0074314F81F
:10144000013F203B02FA03F00842F7D120782E2812
:1014500019D114F8010F47F004072A280ED06FF0B5
:101460002F022078A0F1300109290CD808EB88015F
:1014700002EB410100EB0108641CF2E70A98641CCE
:1014800050F8048B0A9020780028CED0642808D029
:10149000692806D075281ED05A460B9990476D1CB6
:1014A00058E00A994FF00A0901C90A91002802DAA6
:1014B00040422D2102E0390504D52B218DF8201062
:1014C000012103E0F90704D02021F7E78A4608AE9E
:1014D0000DE00021FAE70A994FF00A0901C90A91C3
:1014E000F7E74946FEF752FE303106F8011D0028A5
:1014F000F7D1ADEB060000F12009780701D44FF0D9
:101500000108C84502DDA8EB090000E00020804684
:10151000002706E008A85A46C05D0B9990476D1C4D
:101520007F1C5745F6DB04E030205A460B99904764
:101530006D1CB8F10001A8F10108F5DC05E016F812
:10154000010B5A460B9990476D1CB9F10001A9F1A6
:101550000109F4DC641C65E7092801000A68531CD2
:101560000B60107070470000FFF786FDFFF7C6F8AC
:10157000FFF7DAFBC8210120FFF748FD4FF4FA71AD
:101580000220FFF743FD4FF47A710320FFF73EFD81
:1015900064210420FFF73AFDFFF73AF802200D49D5
:1015A000086016E0FFF7F2FB0220FFF719F848B1D8
:1015B00008480838006880F00200064908390860C9
:1015C000FFF740F80320FFF70BF810B10248FFF7D0
:1015D0003EFBE7E714080140340000200000C1C0D2
:1015E00081C1400101C3C003800241C201C6C006DF
:1015F000800741C70005C1C581C4400401CCC00CAF
:10160000800D41CD000FC1CF81CE400E000AC1CA6E
:1016100081CB400B01C9C009800841C801D8C0185E
:10162000801941D9001BC1DB81DA401A001EC1DEDE
:1016300081DF401F01DDC01D801C41DC0014C1D4CE
:1016400081D5401501D7C017801641D601D2C012EE
:10165000801341D30011C1D181D0401001F0C030BE
:10166000803141F10033C1F381F240320036C1F6DE
:1016700081F7403701F5C035803441F4003CC1FCAE
:1016800081FD403D01FFC03F803E41FE01FAC03A6E
:10169000803B41FB0039C1F981F840380028C1E89E
:1016A00081E9402901EBC02B802A41EA01EEC02EDE
:1016B000802F41EF002DC1ED81EC402C01E4C024CE
:1016C000802541E50027C1E781E640260022C1E2EE
:1016D00081E3402301E1C021802041E001A0C060FE
:1016E000806141A10063C1A381A240620066C1A6DE
:1016F00081A7406701A5C065806441A4006CC1ACAE
:1017000081AD406D01AFC06F806E41AE01AAC06A6D
:10171000806B41AB0069C1A981A840680078C1B85D
:1017200081B9407901BBC07B807A41BA01BEC07EDD
:10173000807F41BF007DC1BD81BC407C01B4C074CD
:10174000807541B50077C1B781B640760072C1B2ED
:1017500081B3407301B1C071807041B00050C1903D
:10176000819140510193C053805241920196C056DD
:10177000805741970055C19581944054019CC05CAD
:10178000805D419D005FC19F819E405E005AC19A6D
:10179000819B405B0199C059805841980188C0489D
:1017A00080494189004BC18B818A404A004EC18EDD
:1017B000818F404F018DC04D804C418C0044C184CD
:1017C000818540450187C047804641860182C042ED
:1017D000804341830041C18181804040FC17000863
:1017E0000000002034000000E81300083018000852
:1017F000340000202C1C0000F813000800A24A044A
:1018000000000000000000000102030406070809B0
:101810000000000001020304010203040607080996
:1018200002040608000000000000000000000000A4
:0400000508000131BD
:00000001FF
