:020000040800F2
:100000003011002045010008410F00083D0500089F
:100010006D060008DD0100081F1500080000000043
:10002000000000000000000000000000E1100008D7
:100030001102000800000000C90F0008E9110008C3
:100040005F0100085F0100085F0100085F01000810
:100050005F0100085F0100085F0100085F01000800
:100060005F0100085F0100085F0100085F010008F0
:100070005F0100085F0100085F0100085F010008E0
:100080005F0100085F0100085F0100085F010008D0
:100090005F0100085F0100085F0100085F010008C0
:1000A0005F0100085F0100085F0100085F010008B0
:1000B0005F0100085F0100085F0100085F010008A0
:1000C0005F0100085F0100085F0100085F01000890
:1000D0005F0100083D130008511300085F0100088C
:1000E0005F0100085F0100085F0100085F01000870
:1000F0005F0100085F0100085F0100085F01000860
:100100005F0100085F0100085F0100085F0100084F
:100110005F0100085F0100085F0100085F0100083F
:100120005F0100085F0100085F0100085F0100082F
:10013000DFF80CD000F040F8004800471517000821
:10014000301100200648804706480047FEE7FEE7DA
:10015000FEE7FEE7FEE7FEE7FEE7FEE7FEE7FEE777
:10016000DD1200083101000840EA01039B0703D0BB
:1001700009E008C9121F08C0042AFAD203E011F8E6
:10018000013B00F8013B521EF9D2704730B50B46D7
:10019000014600202022012409E021FA02F59D42B7
:1001A00005D303FA02F5491B04FA02F52844151E8B
:1001B000A2F10102F1DC30BD064C074D06E0E0681B
:1001C00040F0010394E8070098471034AC42F6D39E
:1001D000FFF7B2FF501B0008701B000800BFFEE7CE
:1001E00030B502460B464FF6FF7008E012F8014B9F
:1001F0004440E1B20012054C34F8114060401C1E2E
:10020000A3F10105EBB2F1D130BD00005019000897
:10021000704700000149C86070470000002002409C
:1002200030B5044604254FF4302000F085F805462B
:10023000042D17D10C48006940F002000A490861FA
:1002400008464461006940F0400008614FF43020E6
:1002500000F072F805460448006941F6FD71084057
:1002600001490861284630BD0020024004200B49A6
:10027000C96801F0010109B101200EE00749C96810
:1002800001F0040109B1022007E00449C96801F046
:10029000100109B1032000E0042070470020024053
:1002A0000348006940F08000014908617047000080
:1002B0000020024078B506460C4604250020009038
:1002C000E80200F039F80546042D24D113480069EE
:1002D00040F00100114908613480E80200F02CF878
:1002E0000546042D10D1B01C0090200C0099088008
:1002F000E80200F021F805460848006941F6FE7161
:1003000008400649086106E00448006941F6FE71AC
:10031000084002490861284678BD000000200240DC
:100320000248034948600348486070472301674515
:1003300000200240AB89EFCD00B502460423FFF751
:1003400095FF034603E0FFF791FF0346521E012B82
:1003500001D1002AF7D102B90523184600BD2DE9C5
:10036000F04102460025002600200023002400273B
:1003700091F803C00CF00F0591F803C00CF0100CBD
:10038000BCF1000F03D091F802C04CEA050591F8CA
:1003900000C0BCF1000F31D0146800202BE04FF0FA
:1003A000010C0CFA00F3B1F800C00CEA03069E42FF
:1003B00020D183004FF00F0C0CFA03F7BC4305FA71
:1003C00003FC4CEA040491F803C0BCF1280F06D1E9
:1003D0004FF0010C0CFA00FCC2F814C00AE091F8CE
:1003E00003C0BCF1480F05D14FF0010C0CFA00FC22
:1003F000C2F810C0401C0828D1D31460B1F800C066
:10040000BCF1FF0F34DD546800202EE000F1080C31
:100410004FF0010808FA0CF3B1F800C00CEA03062B
:100420009E4221D183004FF00F0C0CFA03F7BC431E
:1004300005FA03FC4CEA040491F803C0BCF1280F50
:1004400005D100F1080C08FA0CF8C2F8148091F8F4
:1004500003C0BCF1480F07D100F1080C4FF00108B0
:1004600008FA0CF8C2F81080401C0828CED354605B
:10047000BDE8F081F0B50A460023002400210025E4
:1004800000F00046B6F1004F02D11D4EF16901E0C7
:100490001B4E7168C0F3034583B200F44016B6F5F5
:1004A000401F08D121F07061154E766826F0706605
:1004B000134F7E6012E000F48016B6F5801F06D15F
:1004C000032606FA05F4A14341F0706106E0460DEB
:1004D000360103FA06F6B14341F0706122B1460DD0
:1004E000360103FA06F6314300F00046B6F1004F3C
:1004F00002D1034EF16101E0014E7160F0BD0000D8
:100500000000014001480068704700002C000020F6
:1005100001460A290CDA074830F81100012807D1F2
:10052000054830F81100034A22F8110001207047F5
:100530000020FCE70C0B0020F80A002000BFFEE7BB
:1005400010B545F2555000F031F8022000F022F8C5
:1005500040F6FF7000F024F800F014F800F002F804
:1005600010BD00004CF6CC40014908607047000007
:10057000003000404AF6AA20014908607047000098
:10058000003000404AF6AA20014908607047000088
:1005900000300040014948607047000000300040D2
:1005A0000149886070470000003000400149086040
:1005B000704700000030004010B5024600200023C4
:1005C000054800EB810304E0046824B21480921C07
:1005D000001D9842F8D310BD008000082DE9F041BD
:1005E00005460E460024A0460427FFF799FE342056
:1005F000FFF710FE0C48FFF713FE07460A4C04EB0A
:10060000860807E0B5F900102046FFF753FE0746BD
:10061000AD1C241D444501D2042FF3D0FFF740FE4A
:100620003846BDE8F08100000080000808B50121CF
:10063000082000F0DBFC0121084600F0D7FC012176
:100640000848FFF717FF2020ADF8000001208DF8C3
:10065000020010208DF8030069460348FFF77FFE73
:1006600008BD000000023000000C014000BFFEE7A2
:1006700000B599B0104800F09FF80F49086801F0E4
:10068000D9F80D480368B0F904200CA1684600F0C1
:100690006DFF6946114800F053FF0748D0F82C332E
:1006A0000FA1D0F82823684600F060FF69460B4888
:1006B00000F046FF19B000BD380000200D0A537449
:1006C0006174696F6E204E6F3A2025642C20426160
:1006D0007564726174653A20256400000038014039
:1006E0000D0A526567205374617274206164723A16
:1006F0002025642C204C656E3A2025640000000003
:1007000000B599B0104800F057F80F49086801F09B
:10071000D9F80D480368B0F904200CA1684600F030
:1007200025FF6946114800F00BFF0748D0F82C332D
:100730000FA1D0F82823684600F018FF69460B483F
:1007400000F0FEFE19B000BD980500200D0A53749C
:100750006174696F6E204E6F3A2025642C204261CF
:100760007564726174653A2025640000004400409D
:100770000D0A526567205374617274206164723A85
:100780002025642C204C656E3A2025640000000072
:1007900038B504464FF4A06000F00CFC8DF8004022
:1007A00000208DF8010001208DF802008DF8030073
:1007B000684600F0C7FB38BD30B5B3B004466421CD
:1007C00001A8FFF7F9FEBDF8B80018B1BDF8B800F0
:1007D000FE2802DD0120ADF8B800BDF8BA0060289F
:1007E00016D0BDF8BA00C02812D0BDF8BA00B0F5D6
:1007F000C07F0DD0BDF8BA00B0F5107F08D0BDF8AD
:10080000BA00B0F5906F03D04FF49060ADF8BA0025
:10081000BDF8BC00401C80B2ADF8BC000020ADF8B3
:10082000BE00BDF8C000C82802DAC820ADF8C0007C
:10083000BDF8C000B0F5FA6F03DD4FF4FA60ADF813
:10084000C000BDF8BE00BDF8C0104518B5F5803F2A
:1008500006DBBDF8C0004FF6FF71081AADF8BE0008
:100860000020ADF8C200BDF8C400C82802DAC820D4
:10087000ADF8C400BDF8C400B0F5FA6F03DD4FF465
:10088000FA60ADF8C400BDF8C200BDF8C410451848
:10089000B5F5803F06DBBDF8C4004FF6FF71081ABE
:1008A000ADF8C200BDF8B80000B2A080BDF8BA0033
:1008B000642148432060BDF8BE00C4F83803BDF889
:1008C000C000C4F83C03BDF8BE00BDF8C010084429
:1008D000C4F84003BDF8C010480000F075FFC4F82C
:1008E0004403BDF8C200C4F82803BDF8C400C4F82E
:1008F0002C03BDF8C200BDF8C4100844C4F830038E
:10090000BDF8C410480000F05FFFC4F8340320684D
:10091000602808D0C0280AD0B0F5C07F0BD0B0F551
:10092000906F10D10BE00F2084F854050FE00A20DF
:1009300084F854050BE0052084F8540507E00520F1
:1009400084F8540503E00A2084F8540500BF00BF72
:10095000002084F8500584F85305A4F856050120BA
:1009600084F8580504F55270C4F8480504F5896008
:10097000C4F84C0533B030BD2DE9F04104460E46B5
:1009800004F5A9642068407840F080002168487030
:10099000607B2168887003212068FFF721FC0746EF
:1009A0002168CF7038122168A4F5A9640871002568
:1009B0000DE0D4F84805415D304600F0ACFD00BFC5
:1009C0004021304600F0DAFC0028F9D06D1C052DDE
:1009D000EFDBBDE8F08170B504460E4640F22551CC
:1009E000304600F0D8FCD8B1304600F08FFDC5B2DB
:1009F00094F8530588B1B4F90400A84205D094F8DE
:100A0000500510B9002084F8530594F85015481C7F
:100A100084F85005D4F84C0545540020A4F8560538
:100A200040F22771304600F0B6FC28B1002240F2B7
:100A30002771304600F0D9FC70BD2DE9F041044625
:100A40000E4604F5A964A27A921ED1B22068FFF77F
:100A5000C7FB0746A07A801E226817543912A07A75
:100A60002268A4F5A964401E115400250DE0D4F8B5
:100A70004805415D304600F04EFD00BF4021304644
:100A800000F07CFC0028F9D06D1C94F85205A842B7
:100A9000EDDCBDE8F0812DE9FE4F0446D4F8485561
:100AA000687840B16878062802DD68780F2802DB94
:100AB0006878102802DD0120BDE8FE8F94F851050A
:100AC000FA2803DC94F85105082801DA0320F3E73B
:100AD00094F85105801EC1B22846FFF781FB0290B1
:100AE00094F85105801E295C94F85105401E285C3D
:100AF00041EA00210191DDE90110884201D0032083
:100B0000DAE7E878A97840EA01276879297940EAA4
:100B100001286878012802D06878022853D1B8F5F6
:100B2000707F01DD0320C7E7D4F83803B84201DD48
:100B30000220C1E707EB0800D4F84013884201DB2C
:100B40000220B9E7AE1C08F0070010B94FEAE80030
:100B500002E04FEAE800401C06F8010BB4F8380345
:100B6000381A80B200904FF0000BD94623E0D4F839
:100B70004413009831F8100030B13078012101FAA7
:100B80000BF10843307005E03178012000FA0BF0DA
:100B9000814331700BF10100C0B28346082802DBAB
:100BA0004FF0000B761C0098401C80B2009009F1B9
:100BB00001001FFA80F9C145D9DBA878401D84F8EF
:100BC0005205002078E76878052824D1D4F8380346
:100BD000B84201DC02206FE7B8F57F4F08D1012051
:100BE000D4F83823BA1AD4F8441321F812000DE0CF
:100BF000B8F1000F08D10020D4F83823BA1AD4F87D
:100C0000441321F8120001E0032055E7082084F87E
:100C10005205002050E768780F2838D1D4F83803FF
:100C2000B84201DD022047E707EB0800D4F8401383
:100C3000884201DB02203FE74FF0000BEE1DD4F8A5
:100C40003813791AD4F8440300EB410AD94617E067
:100C50003078012101FA0BF1084008B1012000E0D1
:100C600000202AF8020B0BF10100C0B283460828CD
:100C700002DB4FF0000B761C09F101001FFA80F92E
:100C8000C145E5DB082084F85205002014E76878A8
:100C9000032802D06878042839D1B8F17D0F01DD2E
:100CA000032009E7D4F82803B84201DD022003E756
:100CB00007EB0800D4F83013884201DB0220FBE682
:100CC000AE1CD4F82813791AD4F8340300EB410A87
:100CD0004FEA4860000E06F8010B4FF000090EE0E5
:100CE000BAF80000000A06F8010B9AF8000006F8AE
:100CF000010B0AF1020A09F101001FFA80F9C1454E
:100D0000EEDBA878401D84F852050020D4E6687810
:100D1000062816D1D4F82803B84201DC0220CBE61D
:100D20000FFA88F0D4F82823BA1AD4F8341321F82B
:100D30001200012084F85805082084F8520500208C
:100D4000BAE66878102835D1D4F82803B84201DD16
:100D50000220B1E607EB0800D4F83013884201DB2B
:100D60000220A9E6EE1DD4F82813791AD4F834032A
:100D700000EB410A4FF0000912E016F8011B0802CF
:100D800000B2AAF8000016F8010BBAF900100843E7
:100D9000AAF800000AF1020A09F101001FFA80F91D
:100DA000C145EADB012084F85805082084F8520583
:100DB000002081E601207FE670B5044694F85805CE
:100DC000E8B3D4F82C030A38D4F8341331F91050AE
:100DD000002D01DDFF2D07DD0121D4F82C030A3899
:100DE000D4F8342322F81010D4F82C030938D4F89E
:100DF000341331F91050602D13D0C02D11D0B5F53A
:100E0000C07F0ED0B5F5107F0BD0B5F5906F08D030
:100E10004FF49061D4F82C030938D4F8342322F825
:100E20001010D4F82C030A38D4F8341331F8100019
:100E3000A080D4F82C030938D4F8341300E010E073
:100E400031F910002060D4F82C23D4F8341301EBCE
:100E50004201A1F1C8006421FFF7C0FB002084F823
:100E6000580570BD2DE9F04104460F46B4F856050B
:100E700094F85415884238DD04F5A9642668606842
:100E800020606660207A6072002020720120E0728B
:100E9000607AA4F5A964082824DBD4F84805007812
:100EA000B4F9041088421DD1FFF72CFB05462046FB
:100EB000FFF7F1FD84F8550594F8550520B1394642
:100EC0002046FFF759FD0DE039462046FFF7B5FDF6
:100ED000B4F85C05281A00B2D4F83413A1F8CE0097
:100EE000C4F85C550020A4F85605BDE8F081000068
:100EF0000348B0F85605401C0149A1F85605704753
:100F0000380000200348B0F85605401C0149A1F8FC
:100F1000560570479805002010B502490248FFF7B2
:100F2000A1FF10BD003801403800002010B5024973
:100F30000248FFF797FF10BD0044004098050020CD
:100F40007047000070B5002100230F22C47804B35D
:100F5000154C246804F4E064C4F5E064210AC1F18E
:100F60000403CA40447804FA03F18478144021430E
:100F700009010E4C0678A155047804F01F050124E0
:100F8000AC4005786D11AD0005F1E025C5F80041D4
:100F900009E0047804F01F050124AC40044D0678F4
:100FA000761145F8264070BD0CED00E000E400E04D
:100FB00080E100E002490143024A116070470000ED
:100FC0000000FA050CED00E07047000029B1064A68
:100FD000D2690243044BDA6104E0034AD2698243D6
:100FE000014BDA61704700000010024029B1064A47
:100FF00092690243044B9A6104E0034A9269824376
:10100000014B9A61704700000010024030B500218A
:101010000022002400232D4D6D6805F00C0121B144
:10102000042905D0082923D105E0294D056022E0D7
:10103000274D05601FE0254D6D6805F47012234DA6
:101040006D6805F48034022505EB92421CB9214DF0
:10105000554305600BE01D4D6D6805F400351DB16D
:101060001C4D5543056002E0194D5543056002E0F3
:10107000174D056000BF00BF144D6D6805F0F0010D
:101080000909154D6B5C0568DD4045600F4D6D68C5
:1010900005F4E061090A104D6B5C4568DD40856030
:1010A0000A4D6D6805F46051C90A0B4D6B5C4568CB
:1010B000DD40C560054D6D6805F44041890B074D65
:1010C0006B5CC568B5FBF3F5056130BD00100240EF
:1010D00000127A0000093D001400002024000020C6
:1010E000704710B500F002F810BD00000CB50020EC
:1010F000019000903348006840F480303149086026
:1011000000BF3048006800F4003000900198401C97
:101110000190009818B90198B0F5A06FF1D1294855
:10112000006800F4003010B10120009001E00020C0
:1011300000900098012843D12348006840F0100037
:10114000214908600846006820F00300086008464E
:10115000006840F0020008601A4840681949486079
:101160000846406848600846406840F4806048602F
:101170000846406820F47C1048600846406840F407
:10118000E81048600846006840F08070086000BFC2
:101190000C48006800F000700028F9D00948406849
:1011A00020F00300074948600846406840F002000C
:1011B000486000BF0348406800F00C000828F9D1DF
:1011C0000CBD000000100240002002400A2806DA90
:1011D0004A1C034B23F81020024B23F810207047C1
:1011E000F80A00200C0B002010B5FFF781FEFFF776
:1011F00089FE0F480068401C0D4908600D480068D2
:1012000020B90C480068401E0A49086000240CE020
:10121000094830F81400012806DD074830F81400AA
:10122000401E054921F81400641C0A2CF0DB10BD97
:101230002C000020280000200C0B002070B5214954
:1012400009684FF47A73B1FBF3F2B2F1807F01D3F6
:1012500001211DE022F07F41491E4FF0E02359613A
:1012600059170F23002907DA1C07260E164C01F028
:101270000F052D1F665503E01C07250E134C655402
:1012800000BF00214FF0E02399610721196100217F
:1012900009B100BFFEE74FF0E021096961F00101EB
:1012A0004FF0E0221161002009E00021084A22F8F5
:1012B0001010084A22F81010074A1154401C0A283E
:1012C000F3DB70BD0000002018ED00E000E400E05A
:1012D000F80A00200C0B0020200B002010B513484A
:1012E000006840F001001149086008464068104954
:1012F00008400E494860084600680E4908400B49FE
:1013000008600846006820F48020086008464068AD
:1013100020F4FE0048604FF41F008860FFF7E1FEF4
:101320004FF000600449086010BD0000001002404A
:101330000000FFF8FFFFF6FE08ED00E010B50249DF
:101340000248FFF748FB10BD00380140380000207C
:1013500010B502490248FFF73EFB10BD00440040B3
:101360009805002021B1828942F40052828104E074
:1013700082894DF6FF731A40828170470246002031
:10138000B1F5007F00D100BF13880B400BB10120E5
:1013900000E00020704770B50246002400230025BD
:1013A000002040F66A16B14200D100BFC1F34215D9
:1013B00001F01F03012606FA03F3012D02D19689DD
:1013C000334006E0022D02D1168A334001E0968AAE
:1013D00033400C12012606FA04F41688344013B187
:1013E0000CB1012000E0002070BDF0B503460024E0
:1013F00000260025002040F66A17B94200D100BF40
:101400001846C1F3421401F01F06012707FA06F53A
:10141000012C01D10C3004E0022C01D1103000E08D
:1014200014301AB107682F43076002E00768AF4322
:101430000760F0BD2DE9F04786B005460E46002452
:10144000A24600BFA1460027B08900B100BF2F46C9
:101450002C8A4CF6FF700440F08804432C82AC893F
:101460004EF6F3100440B08831890843718908436F
:101470000443AC81AC8A4FF6FF400440B08904437A
:10148000AC8201A8FFF7C2FD1F48874202D1DDF8F8
:1014900010A001E0DDF80CA0A88900F4004040B1E4
:1014A0000AEBCA0000EB0A1031684900B0FBF1F802
:1014B00007E00AEBCA0000EB0A1031688900B0FBB4
:1014C000F1F86420B8FBF0F004012009642101FB6D
:1014D0001089A88900F4004040B1322000EBC90017
:1014E000B0FBF1F000F00700044308E0322000EB0D
:1014F00009106421B0FBF1F000F00F0004432C81CF
:1015000006B0BDE8F0870000003801400146888839
:10151000C0F308007047C1F308028280704700BF23
:10152000FEE770B504460D4629462046FFF7F3FF57
:1015300000BF80212046FFF721FF0028F9D070BDB1
:1015400070B506460C46002500BF615D3046FFF7CA
:10155000E8FF6D1C605D0028F7D100BF40213046D8
:10156000FFF70CFF0028F9D070BD00000FB4084B46
:1015700010B504A902AA039800F01CF8044602A9B9
:10158000002000F0C1F8204610BC5DF814FB0000FC
:101590000917000802E008C8121F08C1002AFAD182
:1015A00070477047002001E001C1121F002AFBD1E3
:1015B000704700002DE9FF4F89B09B460446002587
:1015C00006E025280BD05A460B999047641C6D1CE9
:1015D00020780028F5D10DB02846BDE8F08F00270F
:1015E000B8460122474900E0074314F8013F203B79
:1015F00002FA03F00842F7D120782E2819D114F806
:10160000010F47F004072A280ED06FF02F02207830
:10161000A0F1300109290CD808EB880102EB410147
:1016200000EB0108641CF2E70A98641C50F8048B74
:101630000A9020780028CED0642808D0692806D0E7
:1016400075281ED05A460B9990476D1C58E00A9990
:101650004FF00A0901C90A91002802DA40422D21FF
:1016600002E0390504D52B218DF82010012103E07B
:10167000F90704D02021F7E78A4608AE0DE00021E3
:10168000FAE70A994FF00A0901C90A91F7E74946B2
:10169000FEF77CFD303106F8011D0028F7D1ADEBD7
:1016A000060000F12009780701D44FF00108C84571
:1016B00002DDA8EB090000E000208046002706E0DC
:1016C00008A85A46C05D0B9990476D1C7F1C574572
:1016D000F6DB04E030205A460B9990476D1CB8F1B8
:1016E0000001A8F10108F5DC05E016F8010B5A46E7
:1016F0000B9990476D1CB9F10001A9F10109F4DCC7
:10170000641C65E7092801000A68531C0B6010700F
:1017100070470000FFF792FDFEF788FFFEF7A8FF75
:10172000FEF7EEFFC8210120FFF750FD4FF47A715C
:101730000220FFF74BFD4FF47A710320FFF746FDBF
:1017400064210420FFF742FDFEF7FAFE20201B492A
:10175000086031E0FFF7E0FBFFF7E8FB0220FEF74F
:10176000D7FE48B115480838006880F020001349BA
:1017700008390860FEF7FEFE0320FEF7C9FED8B167
:101780000F4890F8580528B1C8220D49891D0D4809
:10179000FEF7EAFC0B48801F90F8580528B1C822D4
:1017A00008490748801DFEF7DFFC0548FFF704FBEA
:1017B0000448801FFFF700FBCCE70000140C014039
:1017C000380000209E050020F0B50B30154D20F0AC
:1017D00007010024144A0FE003688B420BD38B42AD
:1017E00005D95E1A43184768C3E9006700E04368FB
:1017F000136002C004E0021D10680028ECD12046EE
:10180000002802D1286808B10020F0BD064A074828
:101810001060074A121A22F00702C0E900240120D2
:101820002860D7E73400002030000020340B00206F
:10183000300D002010B586B0044601210420FFF7CA
:10184000D5FB01218803FFF7D1FB4FF40070ADF801
:10185000140018208DF8170003208DF8160005A934
:101860001648FEF77CFD4FF48060ADF814000420AC
:101870008DF8170005A91148FEF771FD01940020AD
:10188000ADF80800ADF80A00ADF80C00ADF8100096
:101890000C20ADF80E0001A90948FFF7CBFD25206B
:1018A000FEF776FF012240F225510548FFF79DFD26
:1018B00001210348FFF756FD06B010BD00080140A6
:1018C0000038014010B586B0044601210420FFF71E
:1018D0008DFB01214804FFF779FB0420ADF81400CB
:1018E00018208DF8170003208DF8160005A916485A
:1018F000FEF735FD0820ADF8140004208DF8170020
:1019000005A91148FEF72BFD01940020ADF8080051
:10191000ADF80A00ADF80C00ADF810000C20ADF8E1
:101920000E0001A90948FFF785FD2620FEF730FFCC
:10193000012240F225510548FFF757FD01210348D8
:10194000FFF710FD06B010BD000801400044004044
:101950000000C1C081C1400101C3C003800241C277
:1019600001C6C006800741C70005C1C581C4400447
:1019700001CCC00C800D41CD000FC1CF81CE400EF7
:10198000000AC1CA81CB400B01C9C009800841C807
:1019900001D8C018801941D9001BC1DB81DA401A77
:1019A000001EC1DE81DF401F01DDC01D801C41DC47
:1019B0000014C1D481D5401501D7C017801641D677
:1019C00001D2C012801341D30011C1D181D0401087
:1019D00001F0C030803141F10033C1F381F2403277
:1019E0000036C1F681F7403701F5C035803441F447
:1019F000003CC1FC81FD403D01FFC03F803E41FEF7
:101A000001FAC03A803B41FB0039C1F981F8403806
:101A10000028C1E881E9402901EBC02B802A41EA76
:101A200001EEC02E802F41EF002DC1ED81EC402C46
:101A300001E4C024802541E50027C1E781E6402676
:101A40000022C1E281E3402301E1C021802041E086
:101A500001A0C060806141A10063C1A381A2406276
:101A60000066C1A681A7406701A5C065806441A446
:101A7000006CC1AC81AD406D01AFC06F806E41AEF6
:101A800001AAC06A806B41AB0069C1A981A8406806
:101A90000078C1B881B9407901BBC07B807A41BA76
:101AA00001BEC07E807F41BF007DC1BD81BC407C46
:101AB00001B4C074807541B50077C1B781B6407676
:101AC0000072C1B281B3407301B1C071807041B086
:101AD0000050C190819140510193C0538052419276
:101AE0000196C056805741970055C1958194405446
:101AF000019CC05C805D419D005FC19F819E405EF6
:101B0000005AC19A819B405B0199C0598058419805
:101B10000188C04880494189004BC18B818A404A75
:101B2000004EC18E818F404F018DC04D804C418C45
:101B30000044C184818540450187C0478046418675
:101B40000182C042804341830041C1818180404085
:101B5000701B0008000000203800000094150008E9
:101B6000A81B000838000020F8100000A415000889
:101B700000A24A040000000000000000010203046B
:101B80000607080900000000010203040102030423
:101B90000607080902040608000000000000000013
:081BA00000000000000000003D
:0400000508000131BD
:00000001FF
