:020000040800F2
:10000000582F0020450100082D1000081105000898
:1000100041060008DD0100080B1600080000000082
:10002000000000000000000000000000CD110008EA
:100030001102000800000000B5100008D5120008E9
:100040005F0100085F0100085F0100085F01000810
:100050005F0100085F0100085F0100085F01000800
:100060005F0100085F0100085F0100085F010008F0
:100070005F0100085F0100085F0100085F010008E0
:100080005F0100085F0100085F0100085F010008D0
:100090005F0100085F0100085F0100085F010008C0
:1000A0005F0100085F0100085F0100085F010008B0
:1000B0005F0100085F0100085F0100085F010008A0
:1000C0005F0100085F0100085F0100085F01000890
:1000D0005F010008291400083D1400085F010008B2
:1000E0005F0100085F0100085F0100085F01000870
:1000F0005F0100085F0100085F0100085F01000860
:100100005F0100085F0100085F0100085F0100084F
:100110005F0100085F0100085F0100085F0100083F
:100120005F0100085F0100085F0100085F0100082F
:10013000DFF80CD000F040F800480047ED19000847
:10014000582F00200648804706480047FEE7FEE794
:10015000FEE7FEE7FEE7FEE7FEE7FEE7FEE7FEE777
:10016000C91300083101000840EA01039B0703D0CE
:1001700009E008C9121F08C0042AFAD203E011F8E6
:10018000013B00F8013B521EF9D2704730B50B46D7
:10019000014600202022012409E021FA02F59D42B7
:1001A00005D303FA02F5491B04FA02F52844151E8B
:1001B000A2F10102F1DC30BD064C074D06E0E0681B
:1001C00040F0010394E8070098471034AC42F6D39E
:1001D000FFF7B2FF281E0008481E000800BFFEE718
:1001E00030B502460B464FF6FF7008E012F8014B9F
:1001F0004440E1B20012054C34F8114060401C1E2E
:10020000A3F10105EBB2F1D130BD0000281C0008BC
:10021000704700000149C86070470000002002409C
:1002200030B5044604254FF4302000F06FF8054641
:10023000042D17D10C48006940F002000A490861FA
:1002400008464461006940F0400008614FF43020E6
:1002500000F05CF805460448006941F6FD7108406D
:1002600001490861284630BD0020024004200B49A6
:10027000C96801F0010109B101200EE00749C96810
:1002800001F0040109B1022007E00449C96801F046
:10029000100109B1032000E0042070470020024053
:1002A0000348006940F08000014908617047000080
:1002B0000020024070B504460D460426F00200F00E
:1002C00025F80646042E11D10948006940F00100C6
:1002D000074908612580F00200F018F80646044836
:1002E000006941F6FE71084001490861304670BD61
:1002F00000200240024803494860034848607047B4
:100300002301674500200240AB89EFCD00B50246CE
:100310000423FFF7ABFF034603E0FFF7A7FF034605
:10032000521E012B01D1002AF7D102B9052318462C
:1003300000BD2DE9F04102460025002600200023E3
:100340000024002791F803C00CF00F0591F803C0BA
:100350000CF0100CBCF1000F03D091F802C04CEA75
:10036000050591F800C0BCF1000F31D014680020E1
:100370002BE04FF0010C0CFA00F3B1F800C00CEACE
:1003800003069E4220D183004FF00F0C0CFA03F7B6
:10039000BC4305FA03FC4CEA040491F803C0BCF129
:1003A000280F06D14FF0010C0CFA00FCC2F814C063
:1003B0000AE091F803C0BCF1480F05D14FF0010CE1
:1003C0000CFA00FCC2F810C0401C0828D1D31460FD
:1003D000B1F800C0BCF1FF0F34DD546800202EE0FE
:1003E00000F1080C4FF0010808FA0CF3B1F800C056
:1003F0000CEA03069E4221D183004FF00F0C0CFA49
:1004000003F7BC4305FA03FC4CEA040491F803C06B
:10041000BCF1280F05D100F1080C08FA0CF8C2F85D
:10042000148091F803C0BCF1480F07D100F1080C0B
:100430004FF0010808FA0CF8C2F81080401C082898
:10044000CED35460BDE8F081F0B50A460023002405
:100450000021002500F00046B6F1004F02D11D4EEC
:10046000F16901E01B4E7168C0F3034583B200F4EB
:100470004016B6F5401F08D121F07061154E766820
:1004800026F07066134F7E6012E000F48016B6F519
:10049000801F06D1032606FA05F4A14341F07061DE
:1004A00006E0460D360103FA06F6B14341F07061ED
:1004B00022B1460D360103FA06F6314300F000463C
:1004C000B6F1004F02D1034EF16101E0014E7160BF
:1004D000F0BD0000000001400148006870470000C6
:1004E0002C00002001460A290CDA074830F81100D8
:1004F000012807D1054830F81100034A22F81100FD
:10050000012070470020FCE7340B0020200B002066
:1005100000BFFEE710B545F2555000F031F802205B
:1005200000F022F840F6FF7000F024F800F014F814
:1005300000F002F810BD00004CF6CC400149086004
:1005400070470000003000404AF6AA2001490860C8
:1005500070470000003000404AF6AA2001490860B8
:1005600070470000003000400149486070470000BB
:1005700000300040014988607047000000300040B2
:1005800001490860704700000030004010B5024685
:1005900000200023054800EB410304E0048824B256
:1005A0001480921C801C9842F8D310BD0080000873
:1005B0002DE9F04105460E460024A0460427FFF72A
:1005C00099FE3420FFF726FE0C48FFF729FE074668
:1005D0000A4C04EB460807E0288881B22046FFF762
:1005E00069FE0746AD1CA41C444501D2042FF3D07C
:1005F000FFF756FE3846BDE8F08100000080000895
:1006000008B50121082000F067FD0121084600F02F
:1006100063FD01210848FFF717FF2020ADF8000017
:1006200001208DF8020010208DF803006946034870
:10063000FFF77FFE08BD000000023000000C014003
:1006400000BFFEE700B599B01D4800F0D9F81C497D
:10065000486801F05BFA1A484368B0F9082019A10C
:10066000684600F0F9FF69461E4800F0DFFF1448B5
:10067000D0F830331CA1D0F82C23684600F0ECFFF2
:100680006946184800F0D2FF0D48D0F850331EA13B
:10069000D0F84C23684600F0DFFF6946114800F0AF
:1006A000C5FF0748D0F840331FA1D0F83C23684667
:1006B00000F0D2FF69460B4800F0B8FF19B000BD4A
:1006C000380000200D0A53746174696F6E204E6FFC
:1006D0003A2025642C2042617564726174653A2069
:1006E00025640000003801400D0A436F696C2053F7
:1006F00074617274206164723A202534642C204C39
:10070000656E3A20253464000D0A52656720205337
:1007100074617274206164723A202534642C204C18
:10072000656E3A20253464000D0A526F6D20205307
:1007300074617274206164723A202534642C204CF8
:10074000656E3A202534640000B599B0104800F079
:1007500057F80F49486801F021FA0D484368B0F98D
:1007600008200CA1684600F077FF6946114800F0A8
:100770005DFF0748D0F850330FA1D0F84C236846EE
:1007800000F06AFF69460B4800F050FF19B000BD49
:10079000AC0500200D0A53746174696F6E204E6FB2
:1007A0003A2025642C2042617564726174653A2098
:1007B00025640000004400400D0A52656720537410
:1007C000617274206164723A2025642C204C656E3D
:1007D0003A2025640000000038B504464FF4A060BC
:1007E00000F05EFC8DF8004000208DF80100012033
:1007F0008DF802008DF80300684600F019FC38BD42
:1008000030B5B3B00446642101A8FFF7BFFEBDF8C0
:10081000B80018B1BDF8B800FE2802DD0120ADF81F
:10082000B800BDF8BA00602816D0BDF8BA00C028DC
:1008300012D0BDF8BA00B0F5C07F0DD0BDF8BA0037
:10084000B0F5107F08D0BDF8BA00B0F5906F03D0B6
:100850004FF49060ADF8BA00BDF8BC00401C80B207
:10086000ADF8BC00BDF8C000C82802DAC820ADF859
:10087000C000BDF8C000B0F5FA7F03DD4FF4FA7098
:10088000ADF8C000BDF8BE00BDF8C0104518B5F504
:10089000803F06DBBDF8C0004FF6FF71081AADF8C7
:1008A000BE00BDF8C400C82802DAC820ADF8C400F4
:1008B000BDF8C400B0F5FA7F03DD4FF4FA70ADF86F
:1008C000C400BDF8C200BDF8C4104518B5F5803F9E
:1008D00006DBBDF8C4004FF6FF71081AADF8C20080
:1008E000BDF8C800C82802DAC820ADF8C800BDF8B5
:1008F000C800B0F5FA7F03DD4FF4FA70ADF8C80018
:10090000BDF8C600BDF8C8104518B5F5803F06DB38
:10091000BDF8C8004FF6FF71081AADF8C600BDF863
:10092000B80000B22081BDF8BA006421484360607D
:10093000BDF8BE00C4F82C03BDF8C000C4F83003F5
:10094000BDF8BE00BDF8C0100844C4F83403BDF8BB
:10095000C010480001F0A4F8C4F83803D4F83803F4
:1009600018B942F20F70C4F83003BDF8C20004F5A4
:1009700053742060BDF8C4006060BDF8C200BDF8CB
:10098000C4100844A060BDF8C410480001F088F805
:10099000E060E068A4F5537418B942F20F70C4F82F
:1009A0005003BDF8C60004F54F742060BDF8C800C0
:1009B0006060BDF8C600BDF8C8100844A060BDF86E
:1009C000C810480001F06CF8E060E068A4F54F74CE
:1009D00018B942F20F70C4F84003D4F85023D4F889
:1009E000581301EB4201A1F1C800C82201A9FFF789
:1009F000BBFB6068B0F5164F16D006DCB0F5165F8D
:100A00000AD0B0F5964F1BD10AE0B0F5614F0FD078
:100A1000B0F5E13F14D10FE00F2084F8680513E032
:100A20000A2084F868050FE0052084F868050BE0CB
:100A3000052084F8680507E0052084F8680503E0D0
:100A40000A2084F8680500BF00BF002084F8640510
:100A500084F86705A4F86A05012084F86C0504F59C
:100A60005770C4F85C0504F25C40C4F8600533B00C
:100A700030BD2DE9F04104460E4604F25C54206876
:100A8000407840F0800021684870607B2168887061
:100A900003212068FFF7A4FB07462168CF703812B6
:100AA0002168A4F25C54087100250DE0D4F85C05BF
:100AB000415D304600F0A5FD00BF4021304600F00A
:100AC000D3FC0028F9D06D1C052DEFDBBDE8F081CB
:100AD00070B504460E4640F22551304600F0D1FC78
:100AE000D8B1304600F088FDC5B294F8670588B1EA
:100AF000B4F90800A84205D094F8640510B90020A4
:100B000084F8670594F86415481C84F86405D4F8E3
:100B1000600545540020A4F86A0540F2277130466C
:100B200000F0AFFC28B1002240F22771304600F0FF
:100B3000D2FC70BD2DE9F04104460E4604F25C542F
:100B4000A27A921ED1B22068FFF74AFB0746A07A2C
:100B5000801E226817543912A07A2268A4F25C54CD
:100B6000401E115400250DE0D4F85C05415D30466F
:100B700000F047FD00BF4021304600F075FC002822
:100B8000F9D06D1C94F86605A842EDDCBDE8F08153
:100B90002DE9FE4F0446D4F85C65707840B170785A
:100BA000062802DD70780F2802DB7078102802DD3D
:100BB0000120BDE8FE8F94F86505FA2803DC94F85F
:100BC0006505082801DA0320F3E794F86505801E1F
:100BD000C1B23046FFF704FB029094F86505801E11
:100BE000315C94F86505401E305C41EA00210191BA
:100BF000DDE90110884201D00320DAE7F078B1780E
:100C000040EA01287079317940EA0127707801289B
:100C100002D07078022852D1B7F5707F01DD032031
:100C2000C7E7D4F82C03404501DD0220C1E708EBFB
:100C30000700D4F83413884201DB0220B9E7B51C61
:100C400007F0070008B9F81001E0F810401C05F89B
:100C5000010BB4F82C03A8EB000080B200904FF019
:100C6000000BDA4623E0D4F83813009831F810006E
:100C700030B12878012101FA0BF10843287005E012
:100C80002878012101FA0BF1884328700BF101004B
:100C9000C0B28346082802DB4FF0000B6D1C0098A1
:100CA000401C80B200900AF101001FFA80FABA4598
:100CB000D9DBB078401D84F86605002079E77078AC
:100CC000052824D1D4F82C03404501DC022070E72C
:100CD000B7F57F4F09D10120D4F82C23A8EB0202ED
:100CE000D4F8381321F812000CE04FB90020D4F8E2
:100CF0002C23A8EB0202D4F8381321F8120001E0EB
:100D0000032056E7082084F86605002051E7707834
:100D10000F2839D1D4F82C03404501DD022048E7E3
:100D200008EB0700D4F83413884201DB022040E7C7
:100D30004FF0000BF51DD4F82C13A8EB0101D4F8EB
:100D4000380300EB4109DA4617E02878012101FA5F
:100D50000BF1084008B1012000E0002029F8020B47
:100D60000BF10100C0B28346082802DB4FF0000BF4
:100D70006D1C0AF101001FFA80FABA45E5DB082074
:100D800084F86605002014E77078032837D17D2F9A
:100D900000DD0EE7D4F84C03404501DD022008E7F2
:100DA00008EB0700D4F85413884201DB022000E767
:100DB000B51CD4F84C13A8EB0101D4F8580300EB90
:100DC00041097806000E05F8010B4FF0000A0EE00D
:100DD000B9F80000000A05F8010B99F8000005F8C1
:100DE000010B09F102090AF101001FFA80FABA4564
:100DF000EEDBB078401D84F866050020D9E67078F7
:100E0000042838D17D2F01DD0320D2E6D4F83C033D
:100E1000404501DD0220CCE608EB0700D4F844137E
:100E2000884201DB0220C4E6B51CD4F83C13A8EBD1
:100E30000101D4F8480300EB41097806000E05F8DB
:100E4000010B4FF0000A0EE0B9F80000000A05F8A7
:100E5000010B99F8000005F8010B09F102090AF1EC
:100E600001001FFA80FABA45EEDBB078401D84F825
:100E7000660500209DE67078062816D1D4F84C034C
:100E8000404501DC022094E638B2D4F84C23A8EBAC
:100E90000202D4F8581321F81200012084F86C05DE
:100EA000082084F86605002083E67078102836D183
:100EB000D4F84C03404501DD02207AE608EB070038
:100EC000D4F85413884201DB022072E6F51DD4F8F1
:100ED0004C13A8EB0101D4F8580300EB41094FF083
:100EE000000A12E015F8011B080200B2A9F8000080
:100EF00015F8010BB9F900100843A9F8000009F131
:100F000002090AF101001FFA80FABA45EADB012062
:100F100084F86C05082084F86605002049E6012065
:100F200047E610B5044694F86C0568B1D4F8502330
:100F3000D4F8581301EB4201A1F1C8006421FFF776
:100F400037FB002084F86C0510BD2DE9F041044604
:100F50000F46B4F86A0594F8681588423BDD04F240
:100F60005C542668606820606660207A60720020A9
:100F700020720120E072607AA4F25C54082827DB1A
:100F8000D4F85C050078B4F90810884220D1FFF746
:100F9000A3FA05462046FFF7FBFD84F8690594F89F
:100FA000690520B139462046FFF763FD10E0394658
:100FB0002046FFF7BFFDB4F87005281A01B2D4F837
:100FC00050030838D4F8582322F81010C4F870558C
:100FD0000020A4F86A05BDE8F08100000348B0F8DD
:100FE0006A05401C0149A1F86A05704738000020D5
:100FF0000348B0F86A05401C0149A1F86A0570472A
:10100000AC05002010B502490248FFF79EFF10BD55
:10101000003801403800002010B502490248FFF7AF
:1010200094FF10BD00440040AC0500207047000054
:1010300070B5002100230F22C47804B3154C246836
:1010400004F4E064C4F5E064210AC1F10403CA4079
:10105000447804FA03F184781440214309010E4CCA
:101060000678A155047804F01F050124AC400578EA
:101070006D11AD0005F1E025C5F8004109E00478E7
:1010800004F01F050124AC40044D0678761145F8A4
:10109000264070BD0CED00E000E400E080E100E0DF
:1010A00002490143024A1160704700000000FA053E
:1010B0000CED00E07047000029B1064AD2690243F6
:1010C000044BDA6104E0034AD2698243014BDA61DE
:1010D000704700000010024029B1064A926902439D
:1010E000044B9A6104E0034A92698243014B9A617E
:1010F000704700000010024030B50021002200249B
:1011000000232D4D6D6805F00C0121B1042905D097
:10111000082923D105E0294D056022E0274D05600F
:101120001FE0254D6D6805F47012234D6D6805F4C0
:101130008034022505EB92421CB9214D55430560D0
:101140000BE01D4D6D6805F400351DB11C4D554378
:10115000056002E0194D5543056002E0174D05603A
:1011600000BF00BF144D6D6805F0F0010909154D71
:101170006B5C0568DD4045600F4D6D6805F4E0610E
:10118000090A104D6B5C4568DD4085600A4D6D684D
:1011900005F46051C90A0B4D6B5C4568DD40C560C4
:1011A000054D6D6805F44041890B074D6B5CC568C2
:1011B000B5FBF3F5056130BD0010024000127A0066
:1011C00000093D001400002024000020704710B5E5
:1011D00000F002F810BD00000CB500200190009056
:1011E0003348006840F480303149086000BF30481F
:1011F000006800F4003000900198401C01900098B5
:1012000018B90198B0F5A06FF1D12948006800F431
:10121000003010B10120009001E000200090009803
:10122000012843D12348006840F01000214908609C
:101230000846006820F0030008600846006840F097
:10124000020008601A48406819494860084640682A
:1012500048600846406840F480604860084640683E
:1012600020F47C1048600846406840F4E81048606C
:101270000846006840F08070086000BF0C480068B5
:1012800000F000700028F9D00948406820F0030001
:10129000074948600846406840F00200486000BFC7
:1012A0000348406800F00C000828F9D10CBD00008C
:1012B00000100240002002400A2806DA4A1C034BB4
:1012C00023F81020024B23F810207047200B002039
:1012D000340B002010B5FFF781FEFFF789FE0F48A1
:1012E0000068401C0D4908600D48006820B90C4892
:1012F0000068401E0A49086000240CE0094830F8E4
:101300001400012806DD074830F81400401E054986
:1013100021F81400641C0A2CF0DB10BD2C00002006
:1013200028000020340B002070B5214909684FF4D3
:101330007A73B1FBF3F2B2F1807F01D301211DE09A
:1013400022F07F41491E4FF0E023596159170F23C6
:10135000002907DA1C07260E164C01F00F052D1F79
:10136000665503E01C07250E134C655400BF002191
:101370004FF0E023996107211961002109B100BFF5
:10138000FEE74FF0E021096961F001014FF0E02232
:101390001161002009E00021084A22F81010084AD3
:1013A00022F81010074A1154401C0A28F3DB70BDC4
:1013B0000000002018ED00E000E400E0200B002019
:1013C000340B0020480B002010B51348006840F093
:1013D00001001149086008464068104908400E495C
:1013E0004860084600680E4908400B4908600846F6
:1013F000006820F4802008600846406820F4FE0061
:1014000048604FF41F008860FFF7E1FE4FF0006076
:101410000449086010BD0000001002400000FFF801
:10142000FFFFF6FE08ED00E010B502490248FFF7A5
:101430004FFB10BD003801403800002010B50249B4
:101440000248FFF745FB10BD00440040AC050020FA
:1014500021B1828942F40052828104E082894DF6F2
:10146000FF731A408281704702460020B1F5007F69
:1014700000D100BF13880B400BB1012000E0002019
:10148000704770B50246002400230025002040F676
:101490006A16B14200D100BFC1F3421501F01F032B
:1014A000012606FA03F3012D02D19689334006E0A6
:1014B000022D02D1168A334001E0968A33400C1285
:1014C000012606FA04F41688344013B10CB1012049
:1014D00000E0002070BDF0B5034600240026002582
:1014E000002040F66A17B94200D100BF1846C1F388
:1014F000421401F01F06012707FA06F5012C01D15D
:101500000C3004E0022C01D1103000E014301AB18C
:1015100007682F43076002E00768AF430760F0BD2C
:101520002DE9F04786B005460E460024A24600BFCE
:10153000A1460027B08900B100BF2F462C8A4CF687
:10154000FF700440F08804432C82AC894EF6F310FF
:101550000440B08831890843718908430443AC8151
:10156000AC8A4FF6FF400440B0890443AC8201A826
:10157000FFF7C2FD1F48874202D1DDF810A001E04D
:10158000DDF80CA0A88900F4004040B10AEBCA00C5
:1015900000EB0A1031684900B0FBF1F807E00AEBF4
:1015A000CA0000EB0A1031688900B0FBF1F8642032
:1015B000B8FBF0F004012009642101FB1089A8891F
:1015C00000F4004040B1322000EBC900B0FBF1F064
:1015D00000F00700044308E0322000EB091064210A
:1015E000B0FBF1F000F00F0004432C8106B0BDE821
:1015F000F08700000038014001468888C0F30800E9
:101600007047C1F308028280704700BFFEE770B5E3
:1016100004460D4629462046FFF7F3FF00BF802110
:101620002046FFF721FF0028F9D070BD70B50646AF
:101630000C46002500BF615D3046FFF7E8FF6D1CDA
:10164000605D0028F7D100BF40213046FFF70CFF56
:101650000028F9D070BD00000FB4084B10B504A9E4
:1016600002AA039800F01CF8044602A9002000F02A
:10167000B8F9204610BC5DF814FB0000E31900081F
:1016800002E008C8121F08C1002AFAD1704770474B
:10169000002001E001C1121F002AFBD170470000A9
:1016A0002DE9FF4F8BB088460546002606E0252829
:1016B0000BD0DDE90D1290476D1C761C28780028B0
:1016C000F5D10FB03046BDE8F08F0024A146A24608
:1016D0000122AE4900E0044315F8013F203B02FA25
:1016E00003F00842F7D128782A2810D06FF02F0293
:1016F0002878A0F13001092915D809EB890102EBFE
:10170000410144F0020400EB01096D1CF0E758F8B8
:10171000041B5FEA010903D544F40054C9F1000930
:1017200044F002046D1C28782E2817D115F8010FFB
:1017300044F004042A280ED06FF02F022878A0F17C
:10174000300109290AD80AEB8A0102EB410100EBBA
:10175000010A6D1CF2E758F804AB6D1C28786C2860
:101760000FD006DC4C2817D068280DD06A2814D179
:1017700004E0742810D07A280FD10DE044F400144E
:101780000AE044F4801401E044F440146978814292
:1017900002D104F580146D1C6D1C2878692865D071
:1017A00006DC00288DD0632827D0642806D15DE0B0
:1017B0006E2808D073282AD0752877D0DDE90D125D
:1017C0009047761CE0E0C4F30250022809D00328B9
:1017D0000DD0D8F8001004280DD00E6008F10408D0
:1017E000D2E0D8F80010F217C1E90062F6E7D8F8A5
:1017F00000100E80F2E70E70F0E718F8041B8DF869
:10180000001000208DF80100EB46012003E058F89D
:1018100004BB4FF0FF3061074FF0000701D40AE02E
:101820007F1C57450DDA8742FADB1BF807100029A9
:10183000F6D106E07F1C8742FCDB1BF8071000296D
:10184000F8D1DDE90D23A9EB07008146214600F020
:10185000B1F83044C61904E0DDE90D121BF8010BA4
:1018600090477F1EF8D22146484688E058F8040B7E
:10187000C4F302514FF00A0B032900D100B204292E
:1018800000D140B2002802DA40422D2102E02105B9
:1018900005D52B218DF82410012104E006E0E10795
:1018A00010D02021F6E708AF089113E058F8040B98
:1018B000C4F302514FF00A0B032900D180B204296E
:1018C00000D1C0B20021EEE75946FEF75FFC30318F
:1018D00007F8011D0028F7D1ADEB070000F1200B40
:1018E000600702D524F4803401E04FF0010ADA45A4
:1018F00002DDAAEB0B0000E00020824600EB0B01AA
:1019000008980144A9EB01000A90E00306D4DDE940
:101910000D2321460A9800F04DF806444FF00009C7
:1019200008E009A911F80900DDE90D12904709F155
:101930000109761C08998945F3DBE0030CD5DDE944
:101940000D2321460A9800F035F8064404E0DDE94D
:101950000D1230209047761CBAF10001AAF1010A5D
:10196000F5DC05E0DDE90D1217F8010B9047761C58
:10197000BBF10001ABF1010BF4DC0A982146DDE973
:101980000D2300F005F806446D1C97E609280100B8
:101990002DE9F041044600251E461746880404D46C
:1019A00005E039462020B0476D1C641EF9D5284655
:1019B000BDE8F0812DE9F041044600251E46904621
:1019C000C80301D5302700E02027880404D505E0AE
:1019D00041463846B0476D1C641EF9D52846BDE81F
:1019E000F0810A68531C0B6010707047FFF79CFC75
:1019F000FEF706FEFEF726FEFEF7A6FEC821012032
:101A0000FFF75AFC4FF47A710220FFF755FC4FF4B0
:101A10007A710320FFF750FC64210420FFF74CFC8F
:101A2000FEF778FD20201B49086031E0FFF7EAFA55
:101A3000FFF7F2FA0220FEF755FD48B115480838C5
:101A4000006880F02000134908390860FEF77CFD2B
:101A50000320FEF747FDD8B10F4890F86C0528B178
:101A6000C8220D490A310D48FEF77EFB0B480A38A3
:101A700090F86C0528B1C822084907480A30FEF7DB
:101A800073FB0548FFF74DFA04480A38FFF749FA97
:101A9000CCE70000140C014038000020B6050020FF
:101AA000F0B50B30154D20F007010024144A0FE06B
:101AB00003688B420BD38B4205D95E1A43184768E3
:101AC000C3E9006700E04368136002C004E0021D40
:101AD00010680028ECD12046002802D1286808B1FF
:101AE0000020F0BD064A07481060074A121A22F08B
:101AF0000702C0E9002401202860D7E73400002055
:101B0000300000205C0B0020582B002010B586B060
:101B1000044601210420FFF7DFFA01218803FFF7C3
:101B2000DBFA4FF40070ADF8140018208DF81700A0
:101B300003208DF8160005A91648FEF7FAFB4FF4AE
:101B40008060ADF8140004208DF8170005A9114835
:101B5000FEF7EFFB01940020ADF80800ADF80A0095
:101B6000ADF80C00ADF810000C20ADF80E0001A986
:101B70000948FFF7D5FC2520FEF72EFE012240F292
:101B800025510548FFF7A7FC01210348FFF760FC3A
:101B900006B010BD000801400038014010B586B005
:101BA000044601210420FFF797FA01214804FFF7BA
:101BB00083FA0420ADF8140018208DF817000320D4
:101BC0008DF8160005A91648FEF7B3FB0820ADF8FE
:101BD000140004208DF8170005A91148FEF7A9FB91
:101BE00001940020ADF80800ADF80A00ADF80C0033
:101BF000ADF810000C20ADF80E0001A90948FFF760
:101C00008FFC2620FEF7E8FD012240F22551054811
:101C1000FFF761FC01210348FFF71AFC06B010BD75
:101C200000080140004400400000C1C081C14001E3
:101C300001C3C003800241C201C6C006800741C77C
:101C40000005C1C581C4400401CCC00C800D41CD4C
:101C5000000FC1CF81CE400E000AC1CA81CB400B1C
:101C600001C9C009800841C801D8C018801941D9EC
:101C7000001BC1DB81DA401A001EC1DE81DF401F7C
:101C800001DDC01D801C41DC0014C1D481D540158C
:101C900001D7C017801641D601D2C012801341D39C
:101CA0000011C1D181D0401001F0C030803141F12C
:101CB0000033C1F381F240320036C1F681F740377C
:101CC00001F5C035803441F4003CC1FC81FD403D4C
:101CD00001FFC03F803E41FE01FAC03A803B41FB1C
:101CE0000039C1F981F840380028C1E881E940296C
:101CF00001EBC02B802A41EA01EEC02E802F41EF7C
:101D0000002DC1ED81EC402C01E4C024802541E58B
:101D10000027C1E781E640260022C1E281E340239B
:101D200001E1C021802041E001A0C060806141A1AB
:101D30000063C1A381A240620066C1A681A740677B
:101D400001A5C065806441A4006CC1AC81AD406D4B
:101D500001AFC06F806E41AE01AAC06A806B41AB1B
:101D60000069C1A981A840680078C1B881B94079EB
:101D700001BBC07B807A41BA01BEC07E807F41BF7B
:101D8000007DC1BD81BC407C01B4C074807541B58B
:101D90000077C1B781B640760072C1B281B340739B
:101DA00001B1C071807041B00050C190819140512B
:101DB0000193C053805241920196C056805741977B
:101DC0000055C19581944054019CC05C805D419D4B
:101DD000005FC19F819E405E005AC19A819B405B1B
:101DE0000199C059805841980188C048804941896B
:101DF000004BC18B818A404A004EC18E818F404F7B
:101E0000018DC04D804C418C0044C184818540458A
:101E10000187C047804641860182C042804341839A
:101E20000041C18181804040481E00080000002020
:101E30003800000080160008801E000838000020CE
:101E4000202F00009016000800A24A0400000000A5
:101E5000000000000102030406070809000000005A
:101E6000010203040102030406070809020406082C
:101E70000000000000000000000000000000000062
:0400000508000131BD
:00000001FF
